{
  "contractName": "AsekuroBroker",
  "abi": [
    {
      "constant": false,
      "inputs": [],
      "name": "unpause",
      "outputs": [],
      "payable": false,
      "stateMutability": "nonpayable",
      "type": "function",
      "signature": "0x3f4ba83a"
    },
    {
      "constant": true,
      "inputs": [
        {
          "name": "account",
          "type": "address"
        }
      ],
      "name": "isPauser",
      "outputs": [
        {
          "name": "",
          "type": "bool"
        }
      ],
      "payable": false,
      "stateMutability": "view",
      "type": "function",
      "signature": "0x46fbf68e"
    },
    {
      "constant": true,
      "inputs": [],
      "name": "paused",
      "outputs": [
        {
          "name": "",
          "type": "bool"
        }
      ],
      "payable": false,
      "stateMutability": "view",
      "type": "function",
      "signature": "0x5c975abb"
    },
    {
      "constant": true,
      "inputs": [],
      "name": "policyToken",
      "outputs": [
        {
          "name": "",
          "type": "address"
        }
      ],
      "payable": false,
      "stateMutability": "view",
      "type": "function",
      "signature": "0x6307737b"
    },
    {
      "constant": false,
      "inputs": [],
      "name": "renouncePauser",
      "outputs": [],
      "payable": false,
      "stateMutability": "nonpayable",
      "type": "function",
      "signature": "0x6ef8d66d"
    },
    {
      "constant": false,
      "inputs": [],
      "name": "renounceOwnership",
      "outputs": [],
      "payable": false,
      "stateMutability": "nonpayable",
      "type": "function",
      "signature": "0x715018a6"
    },
    {
      "constant": false,
      "inputs": [
        {
          "name": "account",
          "type": "address"
        }
      ],
      "name": "addPauser",
      "outputs": [],
      "payable": false,
      "stateMutability": "nonpayable",
      "type": "function",
      "signature": "0x82dc1ec4"
    },
    {
      "constant": false,
      "inputs": [],
      "name": "pause",
      "outputs": [],
      "payable": false,
      "stateMutability": "nonpayable",
      "type": "function",
      "signature": "0x8456cb59"
    },
    {
      "constant": true,
      "inputs": [],
      "name": "owner",
      "outputs": [
        {
          "name": "",
          "type": "address"
        }
      ],
      "payable": false,
      "stateMutability": "view",
      "type": "function",
      "signature": "0x8da5cb5b"
    },
    {
      "constant": true,
      "inputs": [],
      "name": "isOwner",
      "outputs": [
        {
          "name": "",
          "type": "bool"
        }
      ],
      "payable": false,
      "stateMutability": "view",
      "type": "function",
      "signature": "0x8f32d59b"
    },
    {
      "constant": false,
      "inputs": [
        {
          "name": "newOwner",
          "type": "address"
        }
      ],
      "name": "transferOwnership",
      "outputs": [],
      "payable": false,
      "stateMutability": "nonpayable",
      "type": "function",
      "signature": "0xf2fde38b"
    },
    {
      "anonymous": false,
      "inputs": [
        {
          "indexed": true,
          "name": "_policyId",
          "type": "bytes32"
        },
        {
          "indexed": false,
          "name": "_claimToken",
          "type": "address"
        },
        {
          "indexed": false,
          "name": "_premiumToken",
          "type": "address"
        },
        {
          "indexed": true,
          "name": "_underwriter",
          "type": "address"
        },
        {
          "indexed": false,
          "name": "_underwriterFee",
          "type": "uint256"
        },
        {
          "indexed": false,
          "name": "_resolver",
          "type": "address"
        },
        {
          "indexed": false,
          "name": "_resolverFee",
          "type": "uint256"
        },
        {
          "indexed": true,
          "name": "_relayer",
          "type": "address"
        },
        {
          "indexed": false,
          "name": "_relayerFee",
          "type": "uint256"
        }
      ],
      "name": "LogPolicyOrderFilled",
      "type": "event",
      "signature": "0xa82e8df5341dc42edf8386ee6142c072d409c16a8c96d38a19e2ea4899946f80"
    },
    {
      "anonymous": false,
      "inputs": [
        {
          "indexed": true,
          "name": "previousOwner",
          "type": "address"
        }
      ],
      "name": "OwnershipRenounced",
      "type": "event",
      "signature": "0xf8df31144d9c2f0f6b59d69b8b98abd5459d07f2742c4df920b25aae33c64820"
    },
    {
      "anonymous": false,
      "inputs": [
        {
          "indexed": true,
          "name": "previousOwner",
          "type": "address"
        },
        {
          "indexed": true,
          "name": "newOwner",
          "type": "address"
        }
      ],
      "name": "OwnershipTransferred",
      "type": "event",
      "signature": "0x8be0079c531659141344cd1fd0a4f28419497f9722a3daafe3b4186f6b6457e0"
    },
    {
      "anonymous": false,
      "inputs": [],
      "name": "Paused",
      "type": "event",
      "signature": "0x9e87fac88ff661f02d44f95383c817fece4bce600a3dab7a54406878b965e752"
    },
    {
      "anonymous": false,
      "inputs": [],
      "name": "Unpaused",
      "type": "event",
      "signature": "0xa45f47fdea8a1efdd9029a5691c7f759c32b7c698632b563573e155625d16933"
    },
    {
      "anonymous": false,
      "inputs": [
        {
          "indexed": true,
          "name": "account",
          "type": "address"
        }
      ],
      "name": "PauserAdded",
      "type": "event",
      "signature": "0x6719d08c1888103bea251a4ed56406bd0c3e69723c8a1686e017e7bbe159b6f8"
    },
    {
      "anonymous": false,
      "inputs": [
        {
          "indexed": true,
          "name": "account",
          "type": "address"
        }
      ],
      "name": "PauserRemoved",
      "type": "event",
      "signature": "0xcd265ebaf09df2871cc7bd4133404a235ba12eff2041bb89d9c714a2621c7c7e"
    },
    {
      "constant": false,
      "inputs": [
        {
          "name": "policyTokenAddress",
          "type": "address"
        }
      ],
      "name": "setPolicyToken",
      "outputs": [],
      "payable": false,
      "stateMutability": "nonpayable",
      "type": "function",
      "signature": "0x4b0aeb0c"
    },
    {
      "constant": false,
      "inputs": [
        {
          "name": "carrier",
          "type": "address"
        },
        {
          "name": "orderAddresses",
          "type": "address[8]"
        },
        {
          "name": "orderValues",
          "type": "uint256[6]"
        },
        {
          "name": "orderBytes32",
          "type": "bytes32[3]"
        },
        {
          "name": "signaturesV",
          "type": "uint8[3]"
        },
        {
          "name": "signaturesR",
          "type": "bytes32[3]"
        },
        {
          "name": "signaturesS",
          "type": "bytes32[3]"
        }
      ],
      "name": "fillPolicyOrder",
      "outputs": [
        {
          "name": "_policyId",
          "type": "bytes32"
        }
      ],
      "payable": false,
      "stateMutability": "nonpayable",
      "type": "function",
      "signature": "0xdd5846db"
    }
  ],
  "bytecode": "0x60806040526000600160006101000a81548160ff02191690831515021790555061004033600061008564010000000002610c66179091906401000000009004565b336001806101000a81548173ffffffffffffffffffffffffffffffffffffffff021916908373ffffffffffffffffffffffffffffffffffffffff16021790555061011f565b600073ffffffffffffffffffffffffffffffffffffffff168173ffffffffffffffffffffffffffffffffffffffff16141515156100c157600080fd5b60018260000160008373ffffffffffffffffffffffffffffffffffffffff1673ffffffffffffffffffffffffffffffffffffffff16815260200190815260200160002060006101000a81548160ff0219169083151502179055505050565b6119a98061012e6000396000f3006080604052600436106100c5576000357c0100000000000000000000000000000000000000000000000000000000900463ffffffff1680633f4ba83a146100ca57806346fbf68e146100e15780634b0aeb0c1461013c5780635c975abb1461017f5780636307737b146101ae5780636ef8d66d14610205578063715018a61461021c57806382dc1ec4146102335780638456cb59146102765780638da5cb5b1461028d5780638f32d59b146102e4578063dd5846db14610313578063f2fde38b1461048d575b600080fd5b3480156100d657600080fd5b506100df6104d0565b005b3480156100ed57600080fd5b50610122600480360381019080803573ffffffffffffffffffffffffffffffffffffffff169060200190929190505050610548565b604051808215151515815260200191505060405180910390f35b34801561014857600080fd5b5061017d600480360381019080803573ffffffffffffffffffffffffffffffffffffffff169060200190929190505050610565565b005b34801561018b57600080fd5b506101946105bc565b604051808215151515815260200191505060405180910390f35b3480156101ba57600080fd5b506101c36105d3565b604051808273ffffffffffffffffffffffffffffffffffffffff1673ffffffffffffffffffffffffffffffffffffffff16815260200191505060405180910390f35b34801561021157600080fd5b5061021a6105f9565b005b34801561022857600080fd5b5061023161060f565b005b34801561023f57600080fd5b50610274600480360381019080803573ffffffffffffffffffffffffffffffffffffffff1690602001909291905050506106c9565b005b34801561028257600080fd5b5061028b610737565b005b34801561029957600080fd5b506102a26107af565b604051808273ffffffffffffffffffffffffffffffffffffffff1673ffffffffffffffffffffffffffffffffffffffff16815260200191505060405180910390f35b3480156102f057600080fd5b506102f96107d8565b604051808215151515815260200191505060405180910390f35b34801561031f57600080fd5b5061046f600480360381019080803573ffffffffffffffffffffffffffffffffffffffff1690602001909291908061010001906008806020026040519081016040528092919082600860200280828437820191505050505091929192908060c00190600680602002604051908101604052809291908260066020028082843782019150505050509192919290806060019060038060200260405190810160405280929190826003602002808284378201915050505050919291929080606001906003806020026040519081016040528092919082600360200280828437820191505050505091929192908060600190600380602002604051908101604052809291908260036020028082843782019150505050509192919290806060019060038060200260405190810160405280929190826003602002808284378201915050505050919291929050505061082f565b60405180826000191660001916815260200191505060405180910390f35b34801561049957600080fd5b506104ce600480360381019080803573ffffffffffffffffffffffffffffffffffffffff169060200190929190505050610b19565b005b6104d933610548565b15156104e457600080fd5b600160009054906101000a900460ff1615156104ff57600080fd5b6000600160006101000a81548160ff0219169083151502179055507fa45f47fdea8a1efdd9029a5691c7f759c32b7c698632b563573e155625d1693360405160405180910390a1565b600061055e826000610b3890919063ffffffff16565b9050919050565b61056d6107d8565b151561057857600080fd5b80600260006101000a81548173ffffffffffffffffffffffffffffffffffffffff021916908373ffffffffffffffffffffffffffffffffffffffff16021790555050565b6000600160009054906101000a900460ff16905090565b600260009054906101000a900473ffffffffffffffffffffffffffffffffffffffff1681565b61060d336000610bcc90919063ffffffff16565b565b6106176107d8565b151561062257600080fd5b6001809054906101000a900473ffffffffffffffffffffffffffffffffffffffff1673ffffffffffffffffffffffffffffffffffffffff167ff8df31144d9c2f0f6b59d69b8b98abd5459d07f2742c4df920b25aae33c6482060405160405180910390a260006001806101000a81548173ffffffffffffffffffffffffffffffffffffffff021916908373ffffffffffffffffffffffffffffffffffffffff160217905550565b6106d233610548565b15156106dd57600080fd5b6106f1816000610c6690919063ffffffff16565b8073ffffffffffffffffffffffffffffffffffffffff167f6719d08c1888103bea251a4ed56406bd0c3e69723c8a1686e017e7bbe159b6f860405160405180910390a250565b61074033610548565b151561074b57600080fd5b600160009054906101000a900460ff1615151561076757600080fd5b60018060006101000a81548160ff0219169083151502179055507f9e87fac88ff661f02d44f95383c817fece4bce600a3dab7a54406878b965e75260405160405180910390a1565b60006001809054906101000a900473ffffffffffffffffffffffffffffffffffffffff16905090565b60006001809054906101000a900473ffffffffffffffffffffffffffffffffffffffff1673ffffffffffffffffffffffffffffffffffffffff163373ffffffffffffffffffffffffffffffffffffffff1614905090565b600061083961173a565b600160009054906101000a900460ff1615151561085557600080fd5b610860888888610d00565b9050610870898260000151610edb565b50600073ffffffffffffffffffffffffffffffffffffffff16816000015160a0015173ffffffffffffffffffffffffffffffffffffffff161415156109ba57806000015160a0015173ffffffffffffffffffffffffffffffffffffffff166319c573cd826000015161010001518360000151602001516040518363ffffffff167c01000000000000000000000000000000000000000000000000000000000281526004018083600019166000191681526020018273ffffffffffffffffffffffffffffffffffffffff1673ffffffffffffffffffffffffffffffffffffffff16815260200192505050602060405180830381600087803b15801561097357600080fd5b505af1158015610987573d6000803e3d6000fd5b505050506040513d602081101561099d57600080fd5b810190808051906020019092919050505015156109b957600080fd5b5b8060c0015173ffffffffffffffffffffffffffffffffffffffff1681600001516060015173ffffffffffffffffffffffffffffffffffffffff1682600001516101000151600019167fa82e8df5341dc42edf8386ee6142c072d409c16a8c96d38a19e2ea4899946f808460a001518560800151866020015187600001516040015188606001518960400151604051808773ffffffffffffffffffffffffffffffffffffffff1673ffffffffffffffffffffffffffffffffffffffff1681526020018673ffffffffffffffffffffffffffffffffffffffff1673ffffffffffffffffffffffffffffffffffffffff1681526020018581526020018473ffffffffffffffffffffffffffffffffffffffff1673ffffffffffffffffffffffffffffffffffffffff168152602001838152602001828152602001965050505050505060405180910390a480600001516101000151915050979650505050505050565b610b216107d8565b1515610b2c57600080fd5b610b358161115f565b50565b60008073ffffffffffffffffffffffffffffffffffffffff168273ffffffffffffffffffffffffffffffffffffffff1614151515610b7557600080fd5b8260000160008373ffffffffffffffffffffffffffffffffffffffff1673ffffffffffffffffffffffffffffffffffffffff16815260200190815260200160002060009054906101000a900460ff16905092915050565b600073ffffffffffffffffffffffffffffffffffffffff168173ffffffffffffffffffffffffffffffffffffffff1614151515610c0857600080fd5b60008260000160008373ffffffffffffffffffffffffffffffffffffffff1673ffffffffffffffffffffffffffffffffffffffff16815260200190815260200160002060006101000a81548160ff0219169083151502179055505050565b600073ffffffffffffffffffffffffffffffffffffffff168173ffffffffffffffffffffffffffffffffffffffff1614151515610ca257600080fd5b60018260000160008373ffffffffffffffffffffffffffffffffffffffff1673ffffffffffffffffffffffffffffffffffffffff16815260200190815260200160002060006101000a81548160ff0219169083151502179055505050565b610d0861173a565b610d1061173a565b61012060405190810160405280610db2876000600881101515610d2f57fe5b6020020151886001600881101515610d4357fe5b6020020151896002600881101515610d5757fe5b60200201518a6003600881101515610d6b57fe5b60200201518b6004600881101515610d7f57fe5b60200201518b6000600681101515610d9357fe5b60200201518c6001600681101515610da757fe5b60200201518c611259565b8152602001856002600681101515610dc657fe5b60200201518152602001856003600681101515610ddf57fe5b60200201518152602001856004600681101515610df857fe5b60200201518152602001866006600881101515610e1157fe5b602002015173ffffffffffffffffffffffffffffffffffffffff168152602001866005600881101515610e4057fe5b602002015173ffffffffffffffffffffffffffffffffffffffff168152602001866007600881101515610e6f57fe5b602002015173ffffffffffffffffffffffffffffffffffffffff168152602001856005600681101515610e9e57fe5b602002015181526020016000600102600019168152509050610ebf8161133d565b8161010001906000191690816000191681525050509392505050565b600080600260009054906101000a900473ffffffffffffffffffffffffffffffffffffffff1673ffffffffffffffffffffffffffffffffffffffff1663601ec36884600001518686602001518760400151886060015189608001518a60a001518b60c001518c60e001516040518a63ffffffff167c0100000000000000000000000000000000000000000000000000000000028152600401808a73ffffffffffffffffffffffffffffffffffffffff1673ffffffffffffffffffffffffffffffffffffffff1681526020018973ffffffffffffffffffffffffffffffffffffffff1673ffffffffffffffffffffffffffffffffffffffff1681526020018873ffffffffffffffffffffffffffffffffffffffff1673ffffffffffffffffffffffffffffffffffffffff1681526020018773ffffffffffffffffffffffffffffffffffffffff1673ffffffffffffffffffffffffffffffffffffffff1681526020018673ffffffffffffffffffffffffffffffffffffffff1673ffffffffffffffffffffffffffffffffffffffff1681526020018581526020018473ffffffffffffffffffffffffffffffffffffffff1673ffffffffffffffffffffffffffffffffffffffff16815260200183600360200280838360005b838110156110cd5780820151818401526020810190506110b2565b505050509050018281526020019950505050505050505050602060405180830381600087803b1580156110ff57600080fd5b505af1158015611113573d6000803e3d6000fd5b505050506040513d602081101561112957600080fd5b81019080805190602001909291905050509050826101000151600190048114151561115057fe5b82610100015191505092915050565b600073ffffffffffffffffffffffffffffffffffffffff168173ffffffffffffffffffffffffffffffffffffffff161415151561119b57600080fd5b8073ffffffffffffffffffffffffffffffffffffffff166001809054906101000a900473ffffffffffffffffffffffffffffffffffffffff1673ffffffffffffffffffffffffffffffffffffffff167f8be0079c531659141344cd1fd0a4f28419497f9722a3daafe3b4186f6b6457e060405160405180910390a3806001806101000a81548173ffffffffffffffffffffffffffffffffffffffff021916908373ffffffffffffffffffffffffffffffffffffffff16021790555050565b6112616117d2565b6112696117d2565b610120604051908101604052808b73ffffffffffffffffffffffffffffffffffffffff1681526020018a73ffffffffffffffffffffffffffffffffffffffff1681526020018973ffffffffffffffffffffffffffffffffffffffff1681526020018873ffffffffffffffffffffffffffffffffffffffff1681526020018681526020018773ffffffffffffffffffffffffffffffffffffffff1681526020018481526020018581526020016113248c8c8c8c8b8d8c8c611521565b6000191681525090508091505098975050505050505050565b6000308260000151610100015183602001518460400151856060015186608001518760a001518860c001518960e00151604051602001808a73ffffffffffffffffffffffffffffffffffffffff1673ffffffffffffffffffffffffffffffffffffffff166c0100000000000000000000000002815260140189600019166000191681526020018881526020018781526020018681526020018573ffffffffffffffffffffffffffffffffffffffff1673ffffffffffffffffffffffffffffffffffffffff166c010000000000000000000000000281526014018473ffffffffffffffffffffffffffffffffffffffff1673ffffffffffffffffffffffffffffffffffffffff166c010000000000000000000000000281526014018373ffffffffffffffffffffffffffffffffffffffff1673ffffffffffffffffffffffffffffffffffffffff166c0100000000000000000000000002815260140182815260200199505050505050505050506040516020818303038152906040526040518082805190602001908083835b6020831015156114ed57805182526020820191506020810190506020830392506114c8565b6001836020036101000a03801982511681845116808217855250505050505090500191505060405180910390209050919050565b60008888888888888789604051602001808973ffffffffffffffffffffffffffffffffffffffff1673ffffffffffffffffffffffffffffffffffffffff166c010000000000000000000000000281526014018873ffffffffffffffffffffffffffffffffffffffff1673ffffffffffffffffffffffffffffffffffffffff166c010000000000000000000000000281526014018773ffffffffffffffffffffffffffffffffffffffff1673ffffffffffffffffffffffffffffffffffffffff166c010000000000000000000000000281526014018673ffffffffffffffffffffffffffffffffffffffff1673ffffffffffffffffffffffffffffffffffffffff166c010000000000000000000000000281526014018581526020018473ffffffffffffffffffffffffffffffffffffffff1673ffffffffffffffffffffffffffffffffffffffff166c0100000000000000000000000002815260140183600360200280838360005b838110156116a4578082015181840152602081019050611689565b50505050905001828152602001985050505050505050506040516020818303038152906040526040518082805190602001908083835b6020831015156116ff57805182526020820191506020810190506020830392506116da565b6001836020036101000a0380198251168184511680821785525050505050509050019150506040518091039020905098975050505050505050565b6102606040519081016040528061174f611896565b8152602001600081526020016000815260200160008152602001600073ffffffffffffffffffffffffffffffffffffffff168152602001600073ffffffffffffffffffffffffffffffffffffffff168152602001600073ffffffffffffffffffffffffffffffffffffffff16815260200160008152602001600080191681525090565b61016060405190810160405280600073ffffffffffffffffffffffffffffffffffffffff168152602001600073ffffffffffffffffffffffffffffffffffffffff168152602001600073ffffffffffffffffffffffffffffffffffffffff168152602001600073ffffffffffffffffffffffffffffffffffffffff16815260200160008152602001600073ffffffffffffffffffffffffffffffffffffffff16815260200161187f61195a565b815260200160008152602001600080191681525090565b61016060405190810160405280600073ffffffffffffffffffffffffffffffffffffffff168152602001600073ffffffffffffffffffffffffffffffffffffffff168152602001600073ffffffffffffffffffffffffffffffffffffffff168152602001600073ffffffffffffffffffffffffffffffffffffffff16815260200160008152602001600073ffffffffffffffffffffffffffffffffffffffff16815260200161194361195a565b815260200160008152602001600080191681525090565b6060604051908101604052806003906020820280388339808201915050905050905600a165627a7a723058205b991b9f8f889fc573bf163022d1bc3b4c0b73be39ea1c6981f18cdb683979650029",
  "source": "pragma solidity ^0.4.18;\n\nimport \"./PolicyTemplateContract.sol\";\nimport \"./PolicyToken.sol\";\n\nimport \"../node_modules/openzeppelin-solidity/contracts/ownership/Ownable.sol\";\nimport \"../node_modules/openzeppelin-solidity/contracts/lifecycle/Pausable.sol\";\nimport \"../node_modules/openzeppelin-solidity/contracts/math/SafeMath.sol\";\n\ncontract AsekuroBroker is Pausable, Ownable {\n    using SafeMath for uint;\n\n    PolicyToken public policyToken;\n\n    event  LogPolicyOrderFilled(\n        bytes32 indexed _policyId,\n        address _claimToken,\n        address _premiumToken,\n        address indexed _underwriter,\n        uint _underwriterFee,\n        address _resolver,\n        uint _resolverFee,\n        address indexed _relayer,\n        uint _relayerFee\n    );\n\n    struct Declaration {\n        address version; // address of premiumRouter\n        address insured;\n        address resolver;\n        address underwriter;\n        uint underwriterRiskRating;\n        address policyTemplate;\n        bytes32[3] policyTemplateParameters;\n        uint salt;\n        bytes32 policyId;\n    }\n\n    struct PolicyOrder {\n        Declaration declaration;\n        uint underwriterFee;\n        uint relayerFee;\n        uint resolverFee;\n        address premiumToken; // also used for fees\n        address claimToken;\n        address relayer;\n        uint expirationTimestampInSec;\n        bytes32 policyOrderHash;\n    }\n\n    function setPolicyToken(address policyTokenAddress)\n        public\n        onlyOwner\n    {\n        policyToken = PolicyToken(policyTokenAddress);\n    }\n\n    /**\n     * \n     */\n    function fillPolicyOrder(\n        address carrier,\n        address[8] orderAddresses,\n        uint[6] orderValues,\n        bytes32[3] orderBytes32,\n        uint8[3] signaturesV,\n        bytes32[3] signaturesR,\n        bytes32[3] signaturesS\n    )\n        public\n        whenNotPaused\n        returns (bytes32 _policyId)\n    {\n        PolicyOrder memory policyOrder = getPolicyOrder(orderAddresses, orderValues, orderBytes32);\n        \n        // Check policyOrder conditions\n        // TODO\n        \n        // Mint policy token and finalize policy agreement\n        bindPolicy(carrier, policyOrder.declaration);\n        \n        // register policy start\n        if (policyOrder.declaration.policyTemplate != address(0)) {\n            require(\n                PolicyTemplateContract(policyOrder.declaration.policyTemplate)\n                    .registerPolicyStart(\n                        policyOrder.declaration.policyId,\n                        policyOrder.declaration.insured\n                    )\n            );\n        }\n\n        // transfer underwriter feee to underwriter\n        // TODO\n\n        // transfer relayer fee to relayer\n        // TODO\n\n        emit LogPolicyOrderFilled(\n            policyOrder.declaration.policyId,\n            policyOrder.claimToken,\n            policyOrder.premiumToken,\n            policyOrder.declaration.underwriter,\n            policyOrder.underwriterFee,\n            policyOrder.declaration.resolver,\n            policyOrder.resolverFee,\n            policyOrder.relayer,\n            policyOrder.relayerFee\n        );\n\n        return policyOrder.declaration.policyId;\n    }\n\n    ////////////////////////////\n    //// INTERNAL FUNCTIONS ////\n    ////////////////////////////\n    function bindPolicy(address carrier, Declaration declaration)\n        internal\n        returns (bytes32 _policyId)\n    {\n        // Mint policy token and finalize policy agreement\n        uint tokenId = policyToken.create(\n            declaration.version,\n            carrier,\n            declaration.insured,\n            declaration.resolver,\n            declaration.underwriter,\n            declaration.underwriterRiskRating,\n            declaration.policyTemplate,\n            declaration.policyTemplateParameters,\n            declaration.salt\n        );\n\n        assert(tokenId == uint(declaration.policyId));\n\n        return declaration.policyId;\n    }\n\n    function getDeclaration(\n        address version,\n        address insured,\n        address resolver,\n        address underwriter,\n        address policyTemplate,\n        uint underwriterRiskRating,\n        uint salt,\n        bytes32[3] policyTemplateParameters\n    )\n        internal\n        pure\n        returns (Declaration _declaration)\n    {\n        Declaration memory declaration = Declaration({\n            version: version,\n            insured: insured,\n            resolver: resolver,\n            underwriter: underwriter,\n            underwriterRiskRating: underwriterRiskRating,\n            policyTemplate: policyTemplate,\n            policyTemplateParameters: policyTemplateParameters,\n            salt: salt,\n            policyId: getPolicyId(\n                version,\n                insured,\n                resolver,\n                underwriter,\n                underwriterRiskRating,\n                policyTemplate,\n                salt,\n                policyTemplateParameters\n            )\n        });\n\n        return declaration;\n    }\n\n    function getPolicyOrder(address[8] orderAddresses, uint[6] orderValues, bytes32[3] orderBytes32)\n        internal\n        view\n        returns (PolicyOrder _policyOrder)\n    {\n        PolicyOrder memory policyOrder = PolicyOrder({\n            declaration: getDeclaration(\n                orderAddresses[0],\n                orderAddresses[1],\n                orderAddresses[2],\n                orderAddresses[3],\n                orderAddresses[4],\n                orderValues[0],\n                orderValues[1],\n                orderBytes32\n            ),\n            claimToken: orderAddresses[5],\n            premiumToken: orderAddresses[6],\n            relayer: orderAddresses[7],\n            underwriterFee: orderValues[2],\n            relayerFee: orderValues[3],\n            resolverFee: orderValues[4],\n            expirationTimestampInSec: orderValues[5],\n            policyOrderHash: bytes32(0)\n        });\n\n        policyOrder.policyOrderHash = getPolicyOrderHash(policyOrder);\n    }\n\n    function getPolicyId(\n        address version,\n        address insured,\n        address resolver,\n        address underwriter,\n        uint underwriterRiskRating,\n        address policyContract,\n        uint salt,\n        bytes32[3] policyContractParameters\n    )\n        internal\n        pure\n        returns (bytes32 _policyId)\n    {\n        return keccak256(\n            abi.encodePacked(\n                version,\n                insured,\n                resolver,\n                underwriter,\n                underwriterRiskRating,\n                policyContract,\n                policyContractParameters,\n                salt\n            )\n        );\n    }\n\n    function getPolicyOrderHash(PolicyOrder policyOrder)\n        internal\n        view\n        returns (bytes32 _policyOrderHash)\n    {\n        return keccak256(\n            abi.encodePacked(\n                address(this),\n                policyOrder.declaration.policyId,\n                policyOrder.underwriterFee,\n                policyOrder.relayerFee,\n                policyOrder.resolverFee,\n                policyOrder.premiumToken,\n                policyOrder.claimToken,\n                policyOrder.relayer,\n                policyOrder.expirationTimestampInSec\n            )\n        );\n    }\n}",
  "sourcePath": "/Users/tyndall/Documents/Projects/asekuro-contracts-reloaded/contracts/AsekuroBroker.sol",
  "compiler": {
    "name": "solc",
    "version": "0.4.25+commit.59dbf8f1.Emscripten.clang"
  },
  "schemaVersion": "3.0.0-beta.1",
  "updatedAt": "2018-10-19T20:14:08.370Z"
}