{
  "contractName": "PolicyRegistry",
  "abi": [
    {
      "constant": false,
      "inputs": [],
      "name": "unpause",
      "outputs": [],
      "payable": false,
      "stateMutability": "nonpayable",
      "type": "function",
      "signature": "0x3f4ba83a"
    },
    {
      "constant": true,
      "inputs": [
        {
          "name": "account",
          "type": "address"
        }
      ],
      "name": "isPauser",
      "outputs": [
        {
          "name": "",
          "type": "bool"
        }
      ],
      "payable": false,
      "stateMutability": "view",
      "type": "function",
      "signature": "0x46fbf68e"
    },
    {
      "constant": true,
      "inputs": [],
      "name": "paused",
      "outputs": [
        {
          "name": "",
          "type": "bool"
        }
      ],
      "payable": false,
      "stateMutability": "view",
      "type": "function",
      "signature": "0x5c975abb"
    },
    {
      "constant": false,
      "inputs": [],
      "name": "renouncePauser",
      "outputs": [],
      "payable": false,
      "stateMutability": "nonpayable",
      "type": "function",
      "signature": "0x6ef8d66d"
    },
    {
      "constant": false,
      "inputs": [
        {
          "name": "account",
          "type": "address"
        }
      ],
      "name": "addPauser",
      "outputs": [],
      "payable": false,
      "stateMutability": "nonpayable",
      "type": "function",
      "signature": "0x82dc1ec4"
    },
    {
      "constant": false,
      "inputs": [],
      "name": "pause",
      "outputs": [],
      "payable": false,
      "stateMutability": "nonpayable",
      "type": "function",
      "signature": "0x8456cb59"
    },
    {
      "anonymous": false,
      "inputs": [
        {
          "indexed": true,
          "name": "policyId",
          "type": "bytes32"
        },
        {
          "indexed": true,
          "name": "insured",
          "type": "address"
        },
        {
          "indexed": true,
          "name": "carrier",
          "type": "address"
        },
        {
          "indexed": false,
          "name": "resolver",
          "type": "address"
        },
        {
          "indexed": false,
          "name": "underwriter",
          "type": "address"
        },
        {
          "indexed": false,
          "name": "underwriterRiskRating",
          "type": "uint256"
        },
        {
          "indexed": false,
          "name": "policyTemplate",
          "type": "address"
        },
        {
          "indexed": false,
          "name": "policyTemplateParameters",
          "type": "bytes32[3]"
        }
      ],
      "name": "LogInsertEntry",
      "type": "event",
      "signature": "0x4feaf7d6b903d66ef03bb0d6a3887df840871dc6feb8bd4b14fb685c64bbd56e"
    },
    {
      "anonymous": false,
      "inputs": [],
      "name": "Paused",
      "type": "event",
      "signature": "0x9e87fac88ff661f02d44f95383c817fece4bce600a3dab7a54406878b965e752"
    },
    {
      "anonymous": false,
      "inputs": [],
      "name": "Unpaused",
      "type": "event",
      "signature": "0xa45f47fdea8a1efdd9029a5691c7f759c32b7c698632b563573e155625d16933"
    },
    {
      "anonymous": false,
      "inputs": [
        {
          "indexed": true,
          "name": "account",
          "type": "address"
        }
      ],
      "name": "PauserAdded",
      "type": "event",
      "signature": "0x6719d08c1888103bea251a4ed56406bd0c3e69723c8a1686e017e7bbe159b6f8"
    },
    {
      "anonymous": false,
      "inputs": [
        {
          "indexed": true,
          "name": "account",
          "type": "address"
        }
      ],
      "name": "PauserRemoved",
      "type": "event",
      "signature": "0xcd265ebaf09df2871cc7bd4133404a235ba12eff2041bb89d9c714a2621c7c7e"
    },
    {
      "constant": false,
      "inputs": [
        {
          "name": "_version",
          "type": "address"
        },
        {
          "name": "_carrier",
          "type": "address"
        },
        {
          "name": "_insured",
          "type": "address"
        },
        {
          "name": "_resolver",
          "type": "address"
        },
        {
          "name": "_underwriter",
          "type": "address"
        },
        {
          "name": "_underwriterRiskRating",
          "type": "uint256"
        },
        {
          "name": "_policyTemplate",
          "type": "address"
        },
        {
          "name": "_policyTemplateParameters",
          "type": "bytes32[3]"
        },
        {
          "name": "_salt",
          "type": "uint256"
        }
      ],
      "name": "insert",
      "outputs": [
        {
          "name": "_policyId",
          "type": "bytes32"
        }
      ],
      "payable": false,
      "stateMutability": "nonpayable",
      "type": "function",
      "signature": "0xc9369cf8"
    },
    {
      "constant": true,
      "inputs": [
        {
          "name": "policyId",
          "type": "bytes32"
        }
      ],
      "name": "get",
      "outputs": [
        {
          "name": "",
          "type": "address"
        },
        {
          "name": "",
          "type": "address"
        },
        {
          "name": "",
          "type": "address"
        },
        {
          "name": "",
          "type": "address"
        },
        {
          "name": "",
          "type": "uint256"
        },
        {
          "name": "",
          "type": "address"
        },
        {
          "name": "",
          "type": "bytes32[3]"
        },
        {
          "name": "",
          "type": "uint256"
        }
      ],
      "payable": false,
      "stateMutability": "view",
      "type": "function",
      "signature": "0x8eaa6ac0"
    },
    {
      "constant": true,
      "inputs": [
        {
          "name": "policyId",
          "type": "bytes32"
        }
      ],
      "name": "getPolicyDetails",
      "outputs": [
        {
          "name": "",
          "type": "address"
        },
        {
          "name": "",
          "type": "bytes32[3]"
        }
      ],
      "payable": false,
      "stateMutability": "view",
      "type": "function",
      "signature": "0x40fac30c"
    },
    {
      "constant": true,
      "inputs": [
        {
          "name": "policyId",
          "type": "bytes32"
        }
      ],
      "name": "getPolicyTemplate",
      "outputs": [
        {
          "name": "",
          "type": "address"
        }
      ],
      "payable": false,
      "stateMutability": "view",
      "type": "function",
      "signature": "0x87c8bba9"
    },
    {
      "constant": true,
      "inputs": [
        {
          "name": "policyId",
          "type": "bytes32"
        }
      ],
      "name": "getPolicyTemplateParameters",
      "outputs": [
        {
          "name": "",
          "type": "bytes32[3]"
        }
      ],
      "payable": false,
      "stateMutability": "view",
      "type": "function",
      "signature": "0xd71cf332"
    },
    {
      "constant": true,
      "inputs": [
        {
          "name": "policyId",
          "type": "bytes32"
        }
      ],
      "name": "getBindingBlockTimestamp",
      "outputs": [
        {
          "name": "timestamp",
          "type": "uint256"
        }
      ],
      "payable": false,
      "stateMutability": "view",
      "type": "function",
      "signature": "0x42447594"
    },
    {
      "constant": true,
      "inputs": [
        {
          "name": "policyId",
          "type": "bytes32"
        }
      ],
      "name": "getCarrier",
      "outputs": [
        {
          "name": "",
          "type": "address"
        }
      ],
      "payable": false,
      "stateMutability": "view",
      "type": "function",
      "signature": "0xf5f8231a"
    }
  ],
  "bytecode": "0x60806040526000600160006101000a81548160ff02191690831515021790555061004033600061004564010000000002611278179091906401000000009004565b6100df565b600073ffffffffffffffffffffffffffffffffffffffff168173ffffffffffffffffffffffffffffffffffffffff161415151561008157600080fd5b60018260000160008373ffffffffffffffffffffffffffffffffffffffff1673ffffffffffffffffffffffffffffffffffffffff16815260200190815260200160002060006101000a81548160ff0219169083151502179055505050565b6116d5806100ee6000396000f3006080604052600436106100c5576000357c0100000000000000000000000000000000000000000000000000000000900463ffffffff1680633f4ba83a146100ca57806340fac30c146100e1578063424475941461018157806346fbf68e146101c65780635c975abb146102215780636ef8d66d1461025057806382dc1ec4146102675780638456cb59146102aa57806387c8bba9146102c15780638eaa6ac014610332578063c9369cf8146104ac578063d71cf332146105ee578063f5f8231a1461065b575b600080fd5b3480156100d657600080fd5b506100df6106cc565b005b3480156100ed57600080fd5b506101106004803603810190808035600019169060200190929190505050610744565b604051808373ffffffffffffffffffffffffffffffffffffffff1673ffffffffffffffffffffffffffffffffffffffff16815260200182600360200280838360005b8381101561016d578082015181840152602081019050610152565b505050509050019250505060405180910390f35b34801561018d57600080fd5b506101b060048036038101908080356000191690602001909291905050506107f7565b6040518082815260200191505060405180910390f35b3480156101d257600080fd5b50610207600480360381019080803573ffffffffffffffffffffffffffffffffffffffff16906020019092919050505061081f565b604051808215151515815260200191505060405180910390f35b34801561022d57600080fd5b5061023661083c565b604051808215151515815260200191505060405180910390f35b34801561025c57600080fd5b50610265610853565b005b34801561027357600080fd5b506102a8600480360381019080803573ffffffffffffffffffffffffffffffffffffffff169060200190929190505050610869565b005b3480156102b657600080fd5b506102bf6108d7565b005b3480156102cd57600080fd5b506102f0600480360381019080803560001916906020019092919050505061094f565b604051808273ffffffffffffffffffffffffffffffffffffffff1673ffffffffffffffffffffffffffffffffffffffff16815260200191505060405180910390f35b34801561033e57600080fd5b506103616004803603810190808035600019169060200190929190505050610997565b604051808973ffffffffffffffffffffffffffffffffffffffff1673ffffffffffffffffffffffffffffffffffffffff1681526020018873ffffffffffffffffffffffffffffffffffffffff1673ffffffffffffffffffffffffffffffffffffffff1681526020018773ffffffffffffffffffffffffffffffffffffffff1673ffffffffffffffffffffffffffffffffffffffff1681526020018673ffffffffffffffffffffffffffffffffffffffff1673ffffffffffffffffffffffffffffffffffffffff1681526020018581526020018473ffffffffffffffffffffffffffffffffffffffff1673ffffffffffffffffffffffffffffffffffffffff16815260200183600360200280838360005b8381101561048c578082015181840152602081019050610471565b505050509050018281526020019850505050505050505060405180910390f35b3480156104b857600080fd5b506105d0600480360381019080803573ffffffffffffffffffffffffffffffffffffffff169060200190929190803573ffffffffffffffffffffffffffffffffffffffff169060200190929190803573ffffffffffffffffffffffffffffffffffffffff169060200190929190803573ffffffffffffffffffffffffffffffffffffffff169060200190929190803573ffffffffffffffffffffffffffffffffffffffff16906020019092919080359060200190929190803573ffffffffffffffffffffffffffffffffffffffff169060200190929190806060019060038060200260405190810160405280929190826003602002808284378201915050505050919291929080359060200190929190505050610c2e565b60405180826000191660001916815260200191505060405180910390f35b3480156105fa57600080fd5b5061061d6004803603810190808035600019169060200190929190505050611095565b6040518082600360200280838360005b8381101561064857808201518184015260208101905061062d565b5050505090500191505060405180910390f35b34801561066757600080fd5b5061068a6004803603810190808035600019169060200190929190505050611102565b604051808273ffffffffffffffffffffffffffffffffffffffff1673ffffffffffffffffffffffffffffffffffffffff16815260200191505060405180910390f35b6106d53361081f565b15156106e057600080fd5b600160009054906101000a900460ff1615156106fb57600080fd5b6000600160006101000a81548160ff0219169083151502179055507fa45f47fdea8a1efdd9029a5691c7f759c32b7c698632b563573e155625d1693360405160405180910390a1565b600061074e61153e565b60026000846000191660001916815260200190815260200160002060050160009054906101000a900473ffffffffffffffffffffffffffffffffffffffff16600260008560001916600019168152602001908152602001600020600601806003806020026040519081016040528092919082600380156107e7576020028201915b815460001916815260200190600101908083116107cf575b5050505050905091509150915091565b6000600260008360001916600019168152602001908152602001600020600901549050919050565b600061083582600061114a90919063ffffffff16565b9050919050565b6000600160009054906101000a900460ff16905090565b6108673360006111de90919063ffffffff16565b565b6108723361081f565b151561087d57600080fd5b61089181600061127890919063ffffffff16565b8073ffffffffffffffffffffffffffffffffffffffff167f6719d08c1888103bea251a4ed56406bd0c3e69723c8a1686e017e7bbe159b6f860405160405180910390a250565b6108e03361081f565b15156108eb57600080fd5b600160009054906101000a900460ff1615151561090757600080fd5b60018060006101000a81548160ff0219169083151502179055507f9e87fac88ff661f02d44f95383c817fece4bce600a3dab7a54406878b965e75260405160405180910390a1565b600060026000836000191660001916815260200190815260200160002060050160009054906101000a900473ffffffffffffffffffffffffffffffffffffffff169050919050565b6000806000806000806109a861153e565b60006109b2611561565b600260008b6000191660001916815260200190815260200160002061010060405190810160405290816000820160009054906101000a900473ffffffffffffffffffffffffffffffffffffffff1673ffffffffffffffffffffffffffffffffffffffff1673ffffffffffffffffffffffffffffffffffffffff1681526020016001820160009054906101000a900473ffffffffffffffffffffffffffffffffffffffff1673ffffffffffffffffffffffffffffffffffffffff1673ffffffffffffffffffffffffffffffffffffffff1681526020016002820160009054906101000a900473ffffffffffffffffffffffffffffffffffffffff1673ffffffffffffffffffffffffffffffffffffffff1673ffffffffffffffffffffffffffffffffffffffff1681526020016003820160009054906101000a900473ffffffffffffffffffffffffffffffffffffffff1673ffffffffffffffffffffffffffffffffffffffff1673ffffffffffffffffffffffffffffffffffffffff168152602001600482015481526020016005820160009054906101000a900473ffffffffffffffffffffffffffffffffffffffff1673ffffffffffffffffffffffffffffffffffffffff1673ffffffffffffffffffffffffffffffffffffffff16815260200160068201600380602002604051908101604052809291908260038015610bd2576020028201915b81546000191681526020019060010190808311610bba575b505050505081526020016009820154815250509050806000015181602001518260400151836060015184608001518560a001518660c001518760e001518191509850985098509850985098509850985050919395975091939597565b6000610c38611561565b6000600160009054906101000a900460ff16151515610c5657600080fd5b610100604051908101604052808d73ffffffffffffffffffffffffffffffffffffffff1681526020018c73ffffffffffffffffffffffffffffffffffffffff1681526020018a73ffffffffffffffffffffffffffffffffffffffff1681526020018973ffffffffffffffffffffffffffffffffffffffff1681526020018881526020018773ffffffffffffffffffffffffffffffffffffffff168152602001868152602001428152509150610d0c828b86611312565b9050600073ffffffffffffffffffffffffffffffffffffffff1660026000836000191660001916815260200190815260200160002060010160009054906101000a900473ffffffffffffffffffffffffffffffffffffffff1673ffffffffffffffffffffffffffffffffffffffff16141515610d8757600080fd5b8160026000836000191660001916815260200190815260200160002060008201518160000160006101000a81548173ffffffffffffffffffffffffffffffffffffffff021916908373ffffffffffffffffffffffffffffffffffffffff16021790555060208201518160010160006101000a81548173ffffffffffffffffffffffffffffffffffffffff021916908373ffffffffffffffffffffffffffffffffffffffff16021790555060408201518160020160006101000a81548173ffffffffffffffffffffffffffffffffffffffff021916908373ffffffffffffffffffffffffffffffffffffffff16021790555060608201518160030160006101000a81548173ffffffffffffffffffffffffffffffffffffffff021916908373ffffffffffffffffffffffffffffffffffffffff1602179055506080820151816004015560a08201518160050160006101000a81548173ffffffffffffffffffffffffffffffffffffffff021916908373ffffffffffffffffffffffffffffffffffffffff16021790555060c082015181600601906003610f2792919061161b565b5060e08201518160090155905050816020015173ffffffffffffffffffffffffffffffffffffffff168a73ffffffffffffffffffffffffffffffffffffffff1682600019167f4feaf7d6b903d66ef03bb0d6a3887df840871dc6feb8bd4b14fb685c64bbd56e8560400151866060015187608001518860a001518960c00151604051808673ffffffffffffffffffffffffffffffffffffffff1673ffffffffffffffffffffffffffffffffffffffff1681526020018573ffffffffffffffffffffffffffffffffffffffff1673ffffffffffffffffffffffffffffffffffffffff1681526020018481526020018373ffffffffffffffffffffffffffffffffffffffff1673ffffffffffffffffffffffffffffffffffffffff16815260200182600360200280838360005b8381101561106d578082015181840152602081019050611052565b505050509050019550505050505060405180910390a480925050509998505050505050505050565b61109d61153e565b6002600083600019166000191681526020019081526020016000206006016003806020026040519081016040528092919082600380156110f6576020028201915b815460001916815260200190600101908083116110de575b50505050509050919050565b600060026000836000191660001916815260200190815260200160002060010160009054906101000a900473ffffffffffffffffffffffffffffffffffffffff169050919050565b60008073ffffffffffffffffffffffffffffffffffffffff168273ffffffffffffffffffffffffffffffffffffffff161415151561118757600080fd5b8260000160008373ffffffffffffffffffffffffffffffffffffffff1673ffffffffffffffffffffffffffffffffffffffff16815260200190815260200160002060009054906101000a900460ff16905092915050565b600073ffffffffffffffffffffffffffffffffffffffff168173ffffffffffffffffffffffffffffffffffffffff161415151561121a57600080fd5b60008260000160008373ffffffffffffffffffffffffffffffffffffffff1673ffffffffffffffffffffffffffffffffffffffff16815260200190815260200160002060006101000a81548160ff0219169083151502179055505050565b600073ffffffffffffffffffffffffffffffffffffffff168173ffffffffffffffffffffffffffffffffffffffff16141515156112b457600080fd5b60018260000160008373ffffffffffffffffffffffffffffffffffffffff1673ffffffffffffffffffffffffffffffffffffffff16815260200190815260200160002060006101000a81548160ff0219169083151502179055505050565b60008360000151838560400151866060015187608001518860a001518960c0015188604051602001808973ffffffffffffffffffffffffffffffffffffffff1673ffffffffffffffffffffffffffffffffffffffff166c010000000000000000000000000281526014018873ffffffffffffffffffffffffffffffffffffffff1673ffffffffffffffffffffffffffffffffffffffff166c010000000000000000000000000281526014018773ffffffffffffffffffffffffffffffffffffffff1673ffffffffffffffffffffffffffffffffffffffff166c010000000000000000000000000281526014018673ffffffffffffffffffffffffffffffffffffffff1673ffffffffffffffffffffffffffffffffffffffff166c010000000000000000000000000281526014018581526020018473ffffffffffffffffffffffffffffffffffffffff1673ffffffffffffffffffffffffffffffffffffffff166c0100000000000000000000000002815260140183600360200280838360005b838110156114ad578082015181840152602081019050611492565b50505050905001828152602001985050505050505050506040516020818303038152906040526040518082805190602001908083835b60208310151561150857805182526020820191506020810190506020830392506114e3565b6001836020036101000a038019825116818451168082178552505050505050905001915050604051809103902090509392505050565b606060405190810160405280600390602082028038833980820191505090505090565b61014060405190810160405280600073ffffffffffffffffffffffffffffffffffffffff168152602001600073ffffffffffffffffffffffffffffffffffffffff168152602001600073ffffffffffffffffffffffffffffffffffffffff168152602001600073ffffffffffffffffffffffffffffffffffffffff16815260200160008152602001600073ffffffffffffffffffffffffffffffffffffffff16815260200161160e611661565b8152602001600081525090565b8260038101928215611650579160200282015b8281111561164f57825182906000191690559160200191906001019061162e565b5b50905061165d9190611684565b5090565b606060405190810160405280600390602082028038833980820191505090505090565b6116a691905b808211156116a257600081600090555060010161168a565b5090565b905600a165627a7a723058206b00d28c4f4064e1c825aad2dd7977c0b01f9d85a96a5b5c33938e80b020999b0029",
  "source": "pragma solidity ^0.4.24;\n\nimport \"../node_modules/openzeppelin-solidity/contracts/lifecycle/Pausable.sol\";\nimport \"../node_modules/openzeppelin-solidity/contracts/math/SafeMath.sol\";\n\ncontract PolicyRegistry is Pausable {\n    using SafeMath for uint;\n\n    struct Entry {\n        address version;\n        address carrier;\n        address resolver;\n        address underwriter;\n        uint underwriterRiskRating;\n        address policyTemplate;\n        bytes32[3] policyTemplateParameters;\n        uint bindingBlockTimestamp;\n    }\n\n    // map policyIds to entries\n    mapping (bytes32 => Entry) internal registry;\n\n    // maps insured address to list of policies\n    mapping (address => bytes32[]) internal insuredToPolicies;\n\n    event LogInsertEntry(\n        bytes32 indexed policyId,\n        address indexed insured,\n        address indexed carrier,\n        address resolver,\n        address underwriter,\n        uint underwriterRiskRating,\n        address policyTemplate,\n        bytes32[3] policyTemplateParameters\n    );\n\n    function insert(\n        address _version,\n        address _carrier,\n        address _insured,\n        address _resolver,\n        address _underwriter,\n        uint _underwriterRiskRating,\n        address _policyTemplate,\n        bytes32[3] _policyTemplateParameters,\n        uint _salt\n    )\n        public\n        whenNotPaused\n        returns (bytes32 _policyId)\n    {\n        Entry memory entry = Entry(\n            _version,\n            _carrier,\n            _resolver,\n            _underwriter,\n            _underwriterRiskRating,\n            _policyTemplate,\n            _policyTemplateParameters,\n            block.timestamp\n        );\n\n        bytes32 policyId = _getPolicyId(entry, _insured, _salt);\n\n        // Ensure this entry is new\n        require(registry[policyId].carrier == address(0));\n\n        registry[policyId] = entry;\n\n        emit LogInsertEntry(\n            policyId,\n            _insured,\n            entry.carrier,\n            entry.resolver,\n            entry.underwriter,\n            entry.underwriterRiskRating,\n            entry.policyTemplate,\n            entry.policyTemplateParameters\n        );\n\n        return policyId;\n    }\n\n    function get(bytes32 policyId)\n        public\n        view\n        returns (address, address, address, address, uint, address, bytes32[3], uint)\n    {\n        // Tip: instantiate struct in memory to reduce call stack depth issues\n        Entry memory entry = registry[policyId];\n        return (\n            entry.version,\n            entry.carrier,\n            entry.resolver,\n            entry.underwriter,\n            entry.underwriterRiskRating,\n            entry.policyTemplate,\n            entry.policyTemplateParameters,\n            entry.bindingBlockTimestamp\n        );\n    }\n\n    function getPolicyDetails(\n        bytes32 policyId\n    )\n        public\n        view\n        returns (address, bytes32[3])\n    {\n        return (\n            registry[policyId].policyTemplate,\n            registry[policyId].policyTemplateParameters\n        );\n    }\n\n    function getPolicyTemplate(\n        bytes32 policyId\n    )\n        public\n        view\n        returns (address)\n    {\n        return registry[policyId].policyTemplate;\n    }\n\n    function getPolicyTemplateParameters(\n        bytes32 policyId\n    )\n        public\n        view\n        returns (bytes32[3])\n    {\n        return registry[policyId].policyTemplateParameters;\n    }\n\n    function getBindingBlockTimestamp(\n        bytes32 policyId\n    )\n        public\n        view\n        returns (uint timestamp)\n    {\n        return registry[policyId].bindingBlockTimestamp;\n    }\n\n    function getCarrier(\n        bytes32 policyId\n    )\n        public\n        view\n        returns (address)\n    {\n        return registry[policyId].carrier;\n    }\n\n    function _getPolicyId(Entry _entry, address _insured, uint _salt)\n        internal\n        pure\n        returns (bytes32)\n    {\n        return keccak256(\n            abi.encodePacked(\n                _entry.version, \n                _insured,\n                _entry.resolver,\n                _entry.underwriter,\n                _entry.underwriterRiskRating,\n                _entry.policyTemplate,\n                _entry.policyTemplateParameters,\n                _salt\n            )\n        );\n    }\n\n}",
  "sourcePath": "/Users/tyndall/Documents/Projects/asekuro-contracts-reloaded/contracts/PolicyRegistry.sol",
  "compiler": {
    "name": "solc",
    "version": "0.4.25+commit.59dbf8f1.Emscripten.clang"
  },
  "schemaVersion": "3.0.0-beta.1",
  "updatedAt": "2018-10-19T20:14:08.363Z"
}