{
  "contractName": "PremiumRouter",
  "abi": [
    {
      "constant": true,
      "inputs": [],
      "name": "policyRegistry",
      "outputs": [
        {
          "name": "",
          "type": "address"
        }
      ],
      "payable": false,
      "stateMutability": "view",
      "type": "function",
      "signature": "0x1c4dd7d0"
    },
    {
      "constant": false,
      "inputs": [],
      "name": "unpause",
      "outputs": [],
      "payable": false,
      "stateMutability": "nonpayable",
      "type": "function",
      "signature": "0x3f4ba83a"
    },
    {
      "constant": true,
      "inputs": [
        {
          "name": "account",
          "type": "address"
        }
      ],
      "name": "isPauser",
      "outputs": [
        {
          "name": "",
          "type": "bool"
        }
      ],
      "payable": false,
      "stateMutability": "view",
      "type": "function",
      "signature": "0x46fbf68e"
    },
    {
      "constant": true,
      "inputs": [],
      "name": "paused",
      "outputs": [
        {
          "name": "",
          "type": "bool"
        }
      ],
      "payable": false,
      "stateMutability": "view",
      "type": "function",
      "signature": "0x5c975abb"
    },
    {
      "constant": false,
      "inputs": [],
      "name": "renouncePauser",
      "outputs": [],
      "payable": false,
      "stateMutability": "nonpayable",
      "type": "function",
      "signature": "0x6ef8d66d"
    },
    {
      "constant": false,
      "inputs": [
        {
          "name": "account",
          "type": "address"
        }
      ],
      "name": "addPauser",
      "outputs": [],
      "payable": false,
      "stateMutability": "nonpayable",
      "type": "function",
      "signature": "0x82dc1ec4"
    },
    {
      "constant": false,
      "inputs": [],
      "name": "pause",
      "outputs": [],
      "payable": false,
      "stateMutability": "nonpayable",
      "type": "function",
      "signature": "0x8456cb59"
    },
    {
      "inputs": [
        {
          "name": "_policyRegistry",
          "type": "address"
        }
      ],
      "payable": false,
      "stateMutability": "nonpayable",
      "type": "constructor",
      "signature": "constructor"
    },
    {
      "anonymous": false,
      "inputs": [
        {
          "indexed": true,
          "name": "_policyId",
          "type": "bytes32"
        },
        {
          "indexed": true,
          "name": "_payer",
          "type": "address"
        },
        {
          "indexed": true,
          "name": "_beneficiary",
          "type": "address"
        },
        {
          "indexed": false,
          "name": "_amount",
          "type": "uint256"
        },
        {
          "indexed": false,
          "name": "_token",
          "type": "address"
        }
      ],
      "name": "LogPayment",
      "type": "event",
      "signature": "0x63873f8d1fad972a88e1b44efea2b2d0c399a125a4ea2148b7ad254577cb821d"
    },
    {
      "anonymous": false,
      "inputs": [
        {
          "indexed": true,
          "name": "_errorId",
          "type": "uint8"
        },
        {
          "indexed": true,
          "name": "_policyId",
          "type": "bytes32"
        }
      ],
      "name": "LogError",
      "type": "event",
      "signature": "0x36d86c59e00bd73dc19ba3adfe068e4b64ac7e92be35546adeddf1b956a87e90"
    },
    {
      "anonymous": false,
      "inputs": [],
      "name": "Paused",
      "type": "event",
      "signature": "0x9e87fac88ff661f02d44f95383c817fece4bce600a3dab7a54406878b965e752"
    },
    {
      "anonymous": false,
      "inputs": [],
      "name": "Unpaused",
      "type": "event",
      "signature": "0xa45f47fdea8a1efdd9029a5691c7f759c32b7c698632b563573e155625d16933"
    },
    {
      "anonymous": false,
      "inputs": [
        {
          "indexed": true,
          "name": "account",
          "type": "address"
        }
      ],
      "name": "PauserAdded",
      "type": "event",
      "signature": "0x6719d08c1888103bea251a4ed56406bd0c3e69723c8a1686e017e7bbe159b6f8"
    },
    {
      "anonymous": false,
      "inputs": [
        {
          "indexed": true,
          "name": "account",
          "type": "address"
        }
      ],
      "name": "PauserRemoved",
      "type": "event",
      "signature": "0xcd265ebaf09df2871cc7bd4133404a235ba12eff2041bb89d9c714a2621c7c7e"
    },
    {
      "constant": false,
      "inputs": [
        {
          "name": "policyId",
          "type": "bytes32"
        },
        {
          "name": "amount",
          "type": "uint256"
        },
        {
          "name": "tokenAddress",
          "type": "address"
        }
      ],
      "name": "pay",
      "outputs": [
        {
          "name": "_amountPaid",
          "type": "uint256"
        }
      ],
      "payable": false,
      "stateMutability": "nonpayable",
      "type": "function",
      "signature": "0xccdac525"
    }
  ],
  "bytecode": "0x60806040526000600160006101000a81548160ff02191690831515021790555034801561002b57600080fd5b50604051602080610bf08339810180604052810190808051906020019092919050505061006f3360006100b5640100000000026109cc179091906401000000009004565b806001806101000a81548173ffffffffffffffffffffffffffffffffffffffff021916908373ffffffffffffffffffffffffffffffffffffffff1602179055505061014f565b600073ffffffffffffffffffffffffffffffffffffffff168173ffffffffffffffffffffffffffffffffffffffff16141515156100f157600080fd5b60018260000160008373ffffffffffffffffffffffffffffffffffffffff1673ffffffffffffffffffffffffffffffffffffffff16815260200190815260200160002060006101000a81548160ff0219169083151502179055505050565b610a928061015e6000396000f30060806040526004361061008e576000357c0100000000000000000000000000000000000000000000000000000000900463ffffffff1680631c4dd7d0146100935780633f4ba83a146100ea57806346fbf68e146101015780635c975abb1461015c5780636ef8d66d1461018b57806382dc1ec4146101a25780638456cb59146101e5578063ccdac525146101fc575b600080fd5b34801561009f57600080fd5b506100a861026b565b604051808273ffffffffffffffffffffffffffffffffffffffff1673ffffffffffffffffffffffffffffffffffffffff16815260200191505060405180910390f35b3480156100f657600080fd5b506100ff610290565b005b34801561010d57600080fd5b50610142600480360381019080803573ffffffffffffffffffffffffffffffffffffffff169060200190929190505050610308565b604051808215151515815260200191505060405180910390f35b34801561016857600080fd5b50610171610325565b604051808215151515815260200191505060405180910390f35b34801561019757600080fd5b506101a061033c565b005b3480156101ae57600080fd5b506101e3600480360381019080803573ffffffffffffffffffffffffffffffffffffffff169060200190929190505050610352565b005b3480156101f157600080fd5b506101fa6103c0565b005b34801561020857600080fd5b50610255600480360381019080803560001916906020019092919080359060200190929190803573ffffffffffffffffffffffffffffffffffffffff169060200190929190505050610438565b6040518082815260200191505060405180910390f35b6001809054906101000a900473ffffffffffffffffffffffffffffffffffffffff1681565b61029933610308565b15156102a457600080fd5b600160009054906101000a900460ff1615156102bf57600080fd5b6000600160006101000a81548160ff0219169083151502179055507fa45f47fdea8a1efdd9029a5691c7f759c32b7c698632b563573e155625d1693360405160405180910390a1565b600061031e82600061089e90919063ffffffff16565b9050919050565b6000600160009054906101000a900460ff16905090565b61035033600061093290919063ffffffff16565b565b61035b33610308565b151561036657600080fd5b61037a8160006109cc90919063ffffffff16565b8073ffffffffffffffffffffffffffffffffffffffff167f6719d08c1888103bea251a4ed56406bd0c3e69723c8a1686e017e7bbe159b6f860405160405180910390a250565b6103c933610308565b15156103d457600080fd5b600160009054906101000a900460ff161515156103f057600080fd5b60018060006101000a81548160ff0219169083151502179055507f9e87fac88ff661f02d44f95383c817fece4bce600a3dab7a54406878b965e75260405160405180910390a1565b6000806000600160009054906101000a900460ff1615151561045957600080fd5b600073ffffffffffffffffffffffffffffffffffffffff168473ffffffffffffffffffffffffffffffffffffffff161415151561049557600080fd5b6000851115156104a457600080fd5b6001809054906101000a900473ffffffffffffffffffffffffffffffffffffffff1673ffffffffffffffffffffffffffffffffffffffff16639f89e7a0876040518263ffffffff167c0100000000000000000000000000000000000000000000000000000000028152600401808260001916600019168152602001915050602060405180830381600087803b15801561053c57600080fd5b505af1158015610550573d6000803e3d6000fd5b505050506040513d602081101561056657600080fd5b810190808051906020019092919050505091506001809054906101000a900473ffffffffffffffffffffffffffffffffffffffff1673ffffffffffffffffffffffffffffffffffffffff1663f5f8231a876040518263ffffffff167c0100000000000000000000000000000000000000000000000000000000028152600401808260001916600019168152602001915050602060405180830381600087803b15801561061157600080fd5b505af1158015610625573d6000803e3d6000fd5b505050506040513d602081101561063b57600080fd5b810190808051906020019092919050505090508173ffffffffffffffffffffffffffffffffffffffff166384423e9387338489896040518663ffffffff167c01000000000000000000000000000000000000000000000000000000000281526004018086600019166000191681526020018573ffffffffffffffffffffffffffffffffffffffff1673ffffffffffffffffffffffffffffffffffffffff1681526020018473ffffffffffffffffffffffffffffffffffffffff1673ffffffffffffffffffffffffffffffffffffffff1681526020018381526020018273ffffffffffffffffffffffffffffffffffffffff1673ffffffffffffffffffffffffffffffffffffffff16815260200195505050505050602060405180830381600087803b15801561076957600080fd5b505af115801561077d573d6000803e3d6000fd5b505050506040513d602081101561079357600080fd5b810190808051906020019092919050505015156107f35785600019166002808111156107bb57fe5b60ff167f36d86c59e00bd73dc19ba3adfe068e4b64ac7e92be35546adeddf1b956a87e9060405160405180910390a360009250610895565b8073ffffffffffffffffffffffffffffffffffffffff163373ffffffffffffffffffffffffffffffffffffffff1687600019167f63873f8d1fad972a88e1b44efea2b2d0c399a125a4ea2148b7ad254577cb821d8888604051808381526020018273ffffffffffffffffffffffffffffffffffffffff1673ffffffffffffffffffffffffffffffffffffffff1681526020019250505060405180910390a48492505b50509392505050565b60008073ffffffffffffffffffffffffffffffffffffffff168273ffffffffffffffffffffffffffffffffffffffff16141515156108db57600080fd5b8260000160008373ffffffffffffffffffffffffffffffffffffffff1673ffffffffffffffffffffffffffffffffffffffff16815260200190815260200160002060009054906101000a900460ff16905092915050565b600073ffffffffffffffffffffffffffffffffffffffff168173ffffffffffffffffffffffffffffffffffffffff161415151561096e57600080fd5b60008260000160008373ffffffffffffffffffffffffffffffffffffffff1673ffffffffffffffffffffffffffffffffffffffff16815260200190815260200160002060006101000a81548160ff0219169083151502179055505050565b600073ffffffffffffffffffffffffffffffffffffffff168173ffffffffffffffffffffffffffffffffffffffff1614151515610a0857600080fd5b60018260000160008373ffffffffffffffffffffffffffffffffffffffff1673ffffffffffffffffffffffffffffffffffffffff16815260200190815260200160002060006101000a81548160ff02191690831515021790555050505600a165627a7a72305820d974d5435f78cb17799668c2cb393099360028263fcf1bc7f25537d2d9f4dfcb0029",
  "source": "pragma solidity ^0.4.18;\n\nimport \"./PolicyRegistry.sol\";\nimport \"./PolicyContract.sol\";\nimport \"../node_modules/openzeppelin-solidity/contracts/lifecycle/Pausable.sol\";\nimport \"../node_modules/openzeppelin-solidity/contracts/token/ERC20/ERC20.sol\";\n\ncontract PremiumRouter is Pausable {\n    PolicyRegistry public policyRegistry;\n\n    enum Errors {\n        POLICY_NONEXISTENT,\n        PAYER_BALANCE_OR_ALLOWANCE_INSUFFICIENT,\n        PAYMENT_REJECTED_BY_POLICY_CONTRACT\n    }\n\n    event LogPayment(\n        bytes32 indexed _policyId,\n        address indexed _payer,\n        address indexed _beneficiary,\n        uint _amount,\n        address _token\n    );\n\n    event LogError(uint8 indexed _errorId, bytes32 indexed _policyId);\n\n    constructor(\n        address _policyRegistry\n    )\n        public\n    {\n        policyRegistry = PolicyRegistry(_policyRegistry);\n    }\n\n    function pay(\n        bytes32 policyId,\n        uint256 amount,\n        address tokenAddress\n    )\n        public\n        whenNotPaused\n        returns (uint _amountPaid)\n    {\n        require(tokenAddress != address(0));\n        require(amount > 0);\n\n        address policyContract = policyRegistry.getPolicyContract(policyId);\n        address carrier = policyRegistry.getCarrier(policyId);\n\n        if (!PolicyContract(policyContract).registerPayment(\n            policyId,\n            msg.sender,\n            carrier,\n            amount,\n            tokenAddress\n        )) {\n            emit LogError(uint8(Errors.PAYMENT_REJECTED_BY_POLICY_CONTRACT), policyId);\n            return 0;\n        }\n\n        // Transfer amount to carrier\n        // TODO\n\n        emit LogPayment(policyId, msg.sender, carrier, amount, tokenAddress);\n\n        return amount;\n    }\n}",
  "sourcePath": "/Users/tyndall/Documents/Projects/asekuro-contracts-reloaded/contracts/PremiumRouter.sol",
  "compiler": {
    "name": "solc",
    "version": "0.4.24+commit.e67f0147.Emscripten.clang"
  },
  "schemaVersion": "3.0.0-beta.0",
  "updatedAt": "2018-09-20T03:48:48.687Z"
}