{
  "contractName": "RentersPolicy",
  "abi": [
    {
      "constant": true,
      "inputs": [],
      "name": "DAY_LENGTH_IN_SECONDS",
      "outputs": [
        {
          "name": "",
          "type": "uint256"
        }
      ],
      "payable": false,
      "stateMutability": "view",
      "type": "function",
      "signature": "0x07762982"
    },
    {
      "constant": true,
      "inputs": [],
      "name": "MONTH_LENGTH_IN_SECONDS",
      "outputs": [
        {
          "name": "",
          "type": "uint256"
        }
      ],
      "payable": false,
      "stateMutability": "view",
      "type": "function",
      "signature": "0x20863894"
    },
    {
      "constant": true,
      "inputs": [],
      "name": "WEEK_LENGTH_IN_SECONDS",
      "outputs": [
        {
          "name": "",
          "type": "uint256"
        }
      ],
      "payable": false,
      "stateMutability": "view",
      "type": "function",
      "signature": "0x40018a0d"
    },
    {
      "constant": true,
      "inputs": [
        {
          "name": "",
          "type": "bytes32"
        }
      ],
      "name": "valuePaid",
      "outputs": [
        {
          "name": "",
          "type": "uint256"
        }
      ],
      "payable": false,
      "stateMutability": "view",
      "type": "function",
      "signature": "0x42cd62af"
    },
    {
      "constant": true,
      "inputs": [],
      "name": "HOUR_LENGTH_IN_SECONDS",
      "outputs": [
        {
          "name": "",
          "type": "uint256"
        }
      ],
      "payable": false,
      "stateMutability": "view",
      "type": "function",
      "signature": "0x6f69c96f"
    },
    {
      "constant": true,
      "inputs": [],
      "name": "contractRegistry",
      "outputs": [
        {
          "name": "",
          "type": "address"
        }
      ],
      "payable": false,
      "stateMutability": "view",
      "type": "function",
      "signature": "0xabf410e5"
    },
    {
      "constant": true,
      "inputs": [],
      "name": "YEAR_LENGTH_IN_SECONDS",
      "outputs": [
        {
          "name": "",
          "type": "uint256"
        }
      ],
      "payable": false,
      "stateMutability": "view",
      "type": "function",
      "signature": "0xfd127a41"
    },
    {
      "inputs": [
        {
          "name": "_contractRegistry",
          "type": "address"
        }
      ],
      "payable": false,
      "stateMutability": "nonpayable",
      "type": "constructor",
      "signature": "constructor"
    },
    {
      "anonymous": false,
      "inputs": [
        {
          "indexed": true,
          "name": "policyId",
          "type": "bytes32"
        },
        {
          "indexed": true,
          "name": "claimToken",
          "type": "address"
        },
        {
          "indexed": true,
          "name": "periodUnitType",
          "type": "uint256"
        },
        {
          "indexed": false,
          "name": "limits",
          "type": "uint256[4]"
        },
        {
          "indexed": false,
          "name": "premium",
          "type": "uint256"
        },
        {
          "indexed": false,
          "name": "period",
          "type": "uint256"
        }
      ],
      "name": "LogRentersPolicyStart",
      "type": "event",
      "signature": "0x552d6ec6db0d531038abc8d6f0147485cfe30639bd80ca541fcf7963945ab3c2"
    },
    {
      "anonymous": false,
      "inputs": [
        {
          "indexed": false,
          "name": "policyId",
          "type": "bytes32"
        },
        {
          "indexed": false,
          "name": "payer",
          "type": "address"
        },
        {
          "indexed": false,
          "name": "beneficiary",
          "type": "address"
        },
        {
          "indexed": false,
          "name": "unitsOfPayment",
          "type": "uint256"
        },
        {
          "indexed": false,
          "name": "tokenAddress",
          "type": "address"
        }
      ],
      "name": "LogRegisterPremiumPayment",
      "type": "event",
      "signature": "0x2a5bf1830c0d754f0bd323807b595d0fcbb67b78cc2a2b15899a0762ea13cb2c"
    },
    {
      "constant": false,
      "inputs": [
        {
          "name": "policyId",
          "type": "bytes32"
        },
        {
          "name": "insured",
          "type": "address"
        }
      ],
      "name": "registerPolicyStart",
      "outputs": [
        {
          "name": "_success",
          "type": "bool"
        }
      ],
      "payable": false,
      "stateMutability": "nonpayable",
      "type": "function",
      "signature": "0x19c573cd"
    },
    {
      "constant": false,
      "inputs": [
        {
          "name": "policyId",
          "type": "bytes32"
        },
        {
          "name": "payer",
          "type": "address"
        },
        {
          "name": "beneficiary",
          "type": "address"
        },
        {
          "name": "unitsOfPayment",
          "type": "uint256"
        },
        {
          "name": "tokenAddress",
          "type": "address"
        }
      ],
      "name": "registerPremiumPayment",
      "outputs": [
        {
          "name": "_success",
          "type": "bool"
        }
      ],
      "payable": false,
      "stateMutability": "nonpayable",
      "type": "function",
      "signature": "0x0805c759"
    },
    {
      "constant": true,
      "inputs": [
        {
          "name": "policyId",
          "type": "bytes32"
        },
        {
          "name": "timestamp",
          "type": "uint256"
        }
      ],
      "name": "getExpectedPremiumPaid",
      "outputs": [
        {
          "name": "_expectedPremiumValue",
          "type": "uint256"
        }
      ],
      "payable": false,
      "stateMutability": "view",
      "type": "function",
      "signature": "0x99e88e67"
    },
    {
      "constant": true,
      "inputs": [
        {
          "name": "policyId",
          "type": "bytes32"
        }
      ],
      "name": "getPremiumPaidToDate",
      "outputs": [
        {
          "name": "_valuePaid",
          "type": "uint256"
        }
      ],
      "payable": false,
      "stateMutability": "view",
      "type": "function",
      "signature": "0xbcc5183b"
    },
    {
      "constant": true,
      "inputs": [
        {
          "name": "parameters",
          "type": "bytes32[3]"
        }
      ],
      "name": "unpackParametersFromBytes",
      "outputs": [
        {
          "name": "",
          "type": "uint256[6]"
        }
      ],
      "payable": false,
      "stateMutability": "pure",
      "type": "function",
      "signature": "0xcaef3d9a"
    },
    {
      "constant": true,
      "inputs": [
        {
          "name": "parameters",
          "type": "bytes32[3]"
        }
      ],
      "name": "unpackLimitsFromBytes",
      "outputs": [
        {
          "name": "limits",
          "type": "uint256[4]"
        }
      ],
      "payable": false,
      "stateMutability": "pure",
      "type": "function",
      "signature": "0xe43f50eb"
    },
    {
      "constant": true,
      "inputs": [
        {
          "name": "_policyId",
          "type": "bytes32"
        }
      ],
      "name": "getPolicyEndTimestamp",
      "outputs": [
        {
          "name": "",
          "type": "uint256"
        }
      ],
      "payable": false,
      "stateMutability": "view",
      "type": "function",
      "signature": "0x14b8c0a7"
    }
  ],
  "bytecode": "0x608060405234801561001057600080fd5b506040516020806116da8339810180604052810190808051906020019092919050505080600160006101000a81548173ffffffffffffffffffffffffffffffffffffffff021916908373ffffffffffffffffffffffffffffffffffffffff16021790555050611656806100846000396000f3006080604052600436106100d0576000357c0100000000000000000000000000000000000000000000000000000000900463ffffffff16806307762982146100d55780630805c7591461010057806314b8c0a7146101b357806319c573cd146101f8578063208638941461026157806340018a0d1461028c57806342cd62af146102b75780636f69c96f146102fc57806399e88e6714610327578063abf410e514610376578063bcc5183b146103cd578063caef3d9a14610412578063e43f50eb146104a0578063fd127a411461052e575b600080fd5b3480156100e157600080fd5b506100ea610559565b6040518082815260200191505060405180910390f35b34801561010c57600080fd5b506101996004803603810190808035600019169060200190929190803573ffffffffffffffffffffffffffffffffffffffff169060200190929190803573ffffffffffffffffffffffffffffffffffffffff16906020019092919080359060200190929190803573ffffffffffffffffffffffffffffffffffffffff169060200190929190505050610562565b604051808215151515815260200191505060405180910390f35b3480156101bf57600080fd5b506101e260048036038101908080356000191690602001909291905050506107ef565b6040518082815260200191505060405180910390f35b34801561020457600080fd5b506102476004803603810190808035600019169060200190929190803573ffffffffffffffffffffffffffffffffffffffff169060200190929190505050610811565b604051808215151515815260200191505060405180910390f35b34801561026d57600080fd5b50610276610a91565b6040518082815260200191505060405180910390f35b34801561029857600080fd5b506102a1610a9d565b6040518082815260200191505060405180910390f35b3480156102c357600080fd5b506102e66004803603810190808035600019169060200190929190505050610aa9565b6040518082815260200191505060405180910390f35b34801561030857600080fd5b50610311610ac1565b6040518082815260200191505060405180910390f35b34801561033357600080fd5b50610360600480360381019080803560001916906020019092919080359060200190929190505050610ac7565b6040518082815260200191505060405180910390f35b34801561038257600080fd5b5061038b610b56565b604051808273ffffffffffffffffffffffffffffffffffffffff1673ffffffffffffffffffffffffffffffffffffffff16815260200191505060405180910390f35b3480156103d957600080fd5b506103fc6004803603810190808035600019169060200190929190505050610b7c565b6040518082815260200191505060405180910390f35b34801561041e57600080fd5b506104626004803603810190808060600190600380602002604051908101604052809291908260036020028082843782019150505050509192919290505050610ba0565b6040518082600660200280838360005b8381101561048d578082015181840152602081019050610472565b5050505090500191505060405180910390f35b3480156104ac57600080fd5b506104f06004803603810190808060600190600380602002604051908101604052809291908260036020028082843782019150505050509192919290505050610d45565b6040518082600460200280838360005b8381101561051b578082015181840152602081019050610500565b5050505090500191505060405180910390f35b34801561053a57600080fd5b50610543610e7c565b6040518082815260200191505060405180910390f35b6018610e100281565b600061056c611514565b600160009054906101000a900473ffffffffffffffffffffffffffffffffffffffff1673ffffffffffffffffffffffffffffffffffffffff16637c56bb106040518163ffffffff167c0100000000000000000000000000000000000000000000000000000000028152600401602060405180830381600087803b1580156105f257600080fd5b505af1158015610606573d6000803e3d6000fd5b505050506040513d602081101561061c57600080fd5b810190808051906020019092919050505073ffffffffffffffffffffffffffffffffffffffff163373ffffffffffffffffffffffffffffffffffffffff1614151561066657600080fd5b61066f87610e89565b9050806020015173ffffffffffffffffffffffffffffffffffffffff168373ffffffffffffffffffffffffffffffffffffffff1614156107e0576106d6846000808a60001916600019168152602001908152602001600020546112f190919063ffffffff16565b6000808960001916600019168152602001908152602001600020819055507f2a5bf1830c0d754f0bd323807b595d0fcbb67b78cc2a2b15899a0762ea13cb2c87878787876040518086600019166000191681526020018573ffffffffffffffffffffffffffffffffffffffff1673ffffffffffffffffffffffffffffffffffffffff1681526020018473ffffffffffffffffffffffffffffffffffffffff1673ffffffffffffffffffffffffffffffffffffffff1681526020018381526020018273ffffffffffffffffffffffffffffffffffffffff1673ffffffffffffffffffffffffffffffffffffffff1681526020019550505050505060405180910390a1600191506107e5565b600091505b5095945050505050565b60006107f9611514565b61080283610e89565b90508060800151915050919050565b60008061081c611514565b600160009054906101000a900473ffffffffffffffffffffffffffffffffffffffff1673ffffffffffffffffffffffffffffffffffffffff16631c4dd7d06040518163ffffffff167c0100000000000000000000000000000000000000000000000000000000028152600401602060405180830381600087803b1580156108a257600080fd5b505af11580156108b6573d6000803e3d6000fd5b505050506040513d60208110156108cc57600080fd5b810190808051906020019092919050505073ffffffffffffffffffffffffffffffffffffffff166387c8bba9866040518263ffffffff167c0100000000000000000000000000000000000000000000000000000000028152600401808260001916600019168152602001915050602060405180830381600087803b15801561095357600080fd5b505af1158015610967573d6000803e3d6000fd5b505050506040513d602081101561097d57600080fd5b8101908080519060200190929190505050915061099985610e89565b90503073ffffffffffffffffffffffffffffffffffffffff168273ffffffffffffffffffffffffffffffffffffffff161415610a84578060a0015160048111156109df57fe5b816000015173ffffffffffffffffffffffffffffffffffffffff1686600019167f552d6ec6db0d531038abc8d6f0147485cfe30639bd80ca541fcf7963945ab3c284604001518561010001518660c001516040518084600460200280838360005b83811015610a5b578082015181840152602081019050610a40565b50505050905001838152602001828152602001935050505060405180910390a460019250610a89565b600092505b505092915050565b601e6018610e10020281565b60076018610e10020281565b60006020528060005260406000206000915090505481565b610e1081565b6000610ad1611514565b600080610add86610e89565b9250610ae883611312565b9150826060015185111515610b005760009350610b4d565b826080015185101515610b1557819350610b4d565b610b1f8584611337565b9050610b4a8360c00151610b3c838561138190919063ffffffff16565b6113bf90919063ffffffff16565b93505b50505092915050565b600160009054906101000a900473ffffffffffffffffffffffffffffffffffffffff1681565b60008060008360001916600019168152602001908152602001600020549050919050565b610ba861159e565b6000806000806000807fff00000000000000000000000000000000000000000000000000000000000000600102886000600381101515610be457fe5b60200201511695507eff000000000000000000000000000000000000000000000000000000000000600102886000600381101515610c1e57fe5b60200201511694507dffffffffffffffffffffffff000000000000000000000000000000000000600102886000600381101515610c5757fe5b602002015116935071ffffffffffffffffffffffff000000000000600102886000600381101515610c8457fe5b602002015116925065f00000000000600102886000600381101515610ca557fe5b6020020151169150650ffff0000000600102886000600381101515610cc657fe5b602002015116905060c060405190810160405280610ce58860f86113e9565b8152602001610cf58760f06113e9565b8152602001610d058660906113e9565b8152602001610d158560306113e9565b8152602001610d2584602c6113e9565b8152602001610d3583601c6113e9565b8152509650505050505050919050565b610d4d6115c1565b6000806000807fffffffffffffffffffffffff0000000000000000000000000000000000000000600102866001600381101515610d8657fe5b602002015116935073ffffffffffffffffffffffff0000000000000000600102866001600381101515610db557fe5b60200201511692507fffffffffffffffffffffffff0000000000000000000000000000000000000000600102866002600381101515610df057fe5b602002015116915073ffffffffffffffffffffffff0000000000000000600102866001600381101515610e1f57fe5b6020020151169050608060405190810160405280610e3e8660a06113e9565b8152602001610e4e8560406113e9565b8152602001610e5e8460a06113e9565b8152602001610e6e8360406113e9565b815250945050505050919050565b61016d6018610e10020281565b610e91611514565b610e996115e4565b610ea161159e565b600080610eac6115c1565b600080600080610eba611514565b600160009054906101000a900473ffffffffffffffffffffffffffffffffffffffff1673ffffffffffffffffffffffffffffffffffffffff16631c4dd7d06040518163ffffffff167c0100000000000000000000000000000000000000000000000000000000028152600401602060405180830381600087803b158015610f4057600080fd5b505af1158015610f54573d6000803e3d6000fd5b505050506040513d6020811015610f6a57600080fd5b810190808051906020019092919050505073ffffffffffffffffffffffffffffffffffffffff1663d71cf3328d6040518263ffffffff167c0100000000000000000000000000000000000000000000000000000000028152600401808260001916600019168152602001915050606060405180830381600087803b158015610ff157600080fd5b505af1158015611005573d6000803e3d6000fd5b505050506040513d601f19601f82011682018060405250606081101561102a57600080fd5b8101908091905050995061103d8a610ba0565b985060009750600096506110508a610d45565b955088600460068110151561106157fe5b6020020151600481111561107157fe5b9450600160009054906101000a900473ffffffffffffffffffffffffffffffffffffffff1673ffffffffffffffffffffffffffffffffffffffff16631c4dd7d06040518163ffffffff167c0100000000000000000000000000000000000000000000000000000000028152600401602060405180830381600087803b1580156110f957600080fd5b505af115801561110d573d6000803e3d6000fd5b505050506040513d602081101561112357600080fd5b810190808051906020019092919050505073ffffffffffffffffffffffffffffffffffffffff1663424475948d6040518263ffffffff167c0100000000000000000000000000000000000000000000000000000000028152600401808260001916600019168152602001915050602060405180830381600087803b1580156111aa57600080fd5b505af11580156111be573d6000803e3d6000fd5b505050506040513d60208110156111d457600080fd5b810190808051906020019092919050505093506112156111f386611406565b8a600560068110151561120257fe5b602002015161138190919063ffffffff16565b925061122a84846112f190919063ffffffff16565b9150610120604051908101604052808973ffffffffffffffffffffffffffffffffffffffff1681526020018873ffffffffffffffffffffffffffffffffffffffff16815260200187815260200185815260200183815260200186600481111561128f57fe5b81526020018a60056006811015156112a357fe5b602002015181526020018a60036006811015156112bc57fe5b602002015181526020018a60026006811015156112d557fe5b60200201518152509050809a5050505050505050505050919050565b600080828401905083811015151561130857600080fd5b8091505092915050565b60006113308260c0015183610100015161138190919063ffffffff16565b9050919050565b60008060006113538460600151866114f390919063ffffffff16565b91506113628460a00151611406565b905061137781836113bf90919063ffffffff16565b9250505092915050565b600080600084141561139657600091506113b8565b82840290508284828115156113a757fe5b041415156113b457600080fd5b8091505b5092915050565b6000806000831115156113d157600080fd5b82848115156113dc57fe5b0490508091505092915050565b60008160020a83600190048115156113fd57fe5b04905092915050565b600080600481111561141457fe5b82600481111561142057fe5b141561143057610e1090506114ee565b6001600481111561143d57fe5b82600481111561144957fe5b141561145c576018610e100290506114ee565b6002600481111561146957fe5b82600481111561147557fe5b141561148b5760076018610e10020290506114ee565b6003600481111561149857fe5b8260048111156114a457fe5b14156114ba57601e6018610e10020290506114ee565b6004808111156114c657fe5b8260048111156114d257fe5b14156114e95761016d6018610e10020290506114ee565b600080fd5b919050565b60008083831115151561150557600080fd5b82840390508091505092915050565b61018060405190810160405280600073ffffffffffffffffffffffffffffffffffffffff168152602001600073ffffffffffffffffffffffffffffffffffffffff168152602001611563611607565b815260200160008152602001600081526020016000600481111561158357fe5b81526020016000815260200160008152602001600081525090565b60c060405190810160405280600690602082028038833980820191505090505090565b608060405190810160405280600490602082028038833980820191505090505090565b606060405190810160405280600390602082028038833980820191505090505090565b6080604051908101604052806004906020820280388339808201915050905050905600a165627a7a72305820b25cbe563c3c5e35858c96da236cf7b60b50d16e93305e2d259b7f646067c1a70029",
  "source": "pragma solidity ^0.4.24;\n\nimport \"../ContractRegistry.sol\";\nimport \"../PolicyTemplateContract.sol\";\nimport \"../../node_modules/openzeppelin-solidity/contracts/math/SafeMath.sol\";\n\ncontract RentersPolicy {\n    using SafeMath for uint;\n\n    enum PeriodUnitType { HOURS, DAYS, WEEKS, MONTHS, YEARS }\n\n    enum LimitType { \n        PERSONAL_LIABILITY,\n        PERSONAL_PROPERTY,\n        LOSS_OF_USE,\n        MEDICAL_OTHERS\n    }\n\n    struct RentersParams {\n        address claimTokenAddress;\n        address premiumTokenAddress;\n        uint[4] limits; // denominated in claim tokens\n        uint policyStartUnixTimestamp;\n        uint policyEndUnixTimestamp;\n        PeriodUnitType periodUnitType; // ex. MONTHS\n        uint period; // ex. 12\n        uint deductible; // ex. 250\n        uint premium; // ex. 10\n    }\n\n    uint public constant HOUR_LENGTH_IN_SECONDS = 60 * 60;\n    uint public constant DAY_LENGTH_IN_SECONDS = HOUR_LENGTH_IN_SECONDS * 24;\n    uint public constant WEEK_LENGTH_IN_SECONDS = DAY_LENGTH_IN_SECONDS * 7;\n    uint public constant MONTH_LENGTH_IN_SECONDS = DAY_LENGTH_IN_SECONDS * 30;\n    uint public constant YEAR_LENGTH_IN_SECONDS = DAY_LENGTH_IN_SECONDS * 365;\n\n    mapping (bytes32 => uint) public valuePaid;\n\n    ContractRegistry public contractRegistry;\n\n    event LogRentersPolicyStart(\n        bytes32 indexed policyId,\n        address indexed claimToken,\n        uint indexed periodUnitType,\n        uint[4] limits,\n        uint premium,\n        uint period\n    );\n\n    event LogRegisterPremiumPayment(\n        bytes32 policyId,\n        address payer,\n        address beneficiary,\n        uint256 unitsOfPayment,\n        address tokenAddress\n    );\n\n    modifier onlyRouter() {\n        require(msg.sender == address(contractRegistry.premiumRouter()));\n        _;\n    }\n\n    constructor(\n        address _contractRegistry\n    )\n        public\n    {\n        contractRegistry = ContractRegistry(_contractRegistry);\n    }\n\n    function registerPolicyStart(\n        bytes32 policyId,\n        address insured\n    )\n        public\n        returns (bool _success)\n    {\n        address policyTemplate = contractRegistry.policyRegistry().getPolicyTemplate(policyId);\n\n        RentersParams memory params = unpackParametersForPolicyId(policyId);\n\n        if (policyTemplate == address(this)) {\n            emit LogRentersPolicyStart(\n                policyId,\n                params.claimTokenAddress,\n                uint(params.periodUnitType),\n                params.limits,\n                params.premium,\n                params.period\n            );\n\n            return true;\n        }\n\n        return false;\n    }\n\n    function registerPremiumPayment(\n        bytes32 policyId,\n        address payer,\n        address beneficiary,\n        uint256 unitsOfPayment,\n        address tokenAddress\n    )\n        public\n        onlyRouter\n        returns (bool _success)\n    {\n        RentersParams memory params = unpackParametersForPolicyId(policyId);\n\n        if (tokenAddress == params.premiumTokenAddress) {\n            valuePaid[policyId] = valuePaid[policyId].add(unitsOfPayment);\n\n            LogRegisterPremiumPayment(\n                policyId,\n                payer,\n                beneficiary,\n                unitsOfPayment,\n                tokenAddress\n            );\n\n            return true;\n        }\n\n        return false;\n    }\n\n    function getExpectedPremiumPaid(\n        bytes32 policyId,\n        uint256 timestamp\n    )\n        public\n        view\n        returns (uint _expectedPremiumValue)\n    {\n        RentersParams memory params = unpackParametersForPolicyId(policyId);\n        uint totalPremium = calculateTotalPremium(params);\n\n        if (timestamp <= params.policyStartUnixTimestamp) {\n            return 0;\n        } else if (timestamp >= params.policyEndUnixTimestamp) {\n            return totalPremium;\n        } else {\n            uint numUnits = numPeriodUnitsForTimestamp(timestamp, params);\n            return totalPremium.mul(numUnits).div(params.period);\n        }\n    }\n\n    function getPremiumPaidToDate(bytes32 policyId)\n        public\n        view\n        returns (uint _valuePaid)\n    {\n        return valuePaid[policyId];\n    }\n\n    function unpackParametersForPolicyId(\n        bytes32 policyId\n    )\n        internal\n        returns (RentersParams)\n    {\n        bytes32[3] memory parameters = contractRegistry.policyRegistry().getPolicyTemplateParameters(policyId);\n\n        // To avoid stack too deep, use uint[]\n        // uintParams[0] - claimTokenIndex;\n        // uintParams[1] - premiumTokenIndex;\n        // uintParams[2] -  premium;\n        // uintParams[3] - deductible;\n        // uintParams[4] - rawPeriodUnitType;\n        // uintParams[5] - period;\n        uint[6] memory uintParams = unpackParametersFromBytes(parameters);\n\n        // (claimTokenIndex, premiumTokenIndex, premium, deductible, rawPeriodUnitType, period) =\n        //     unpackParametersFromBytes(parameters);\n\n        // TODO lookup token address\n        address claimTokenAddr = address(0);\n        address premiumTokenAddr = address(0);\n\n        uint[4] memory limits = unpackLimitsFromBytes(parameters);\n        \n        // PeriodUnitType periodUnitType = PeriodUnitType(rawPeriodUnitType);\n        PeriodUnitType periodUnitType = PeriodUnitType(uintParams[4]);\n\n        // uint bindingBlockTimestamp = contractRegistry.policyRegistry().getBindingBlockTimestamp(policyId);\n        // uint policyLengthInSeconds = period.mul(getPeriodUnitLengthInSeconds(periodUnitType));\n        // uint policyEndUnixTimestamp = policyLengthInSeconds.add(bindingBlockTimestamp);\n\n        uint bindingBlockTimestamp = contractRegistry.policyRegistry().getBindingBlockTimestamp(policyId);\n        uint policyLengthInSeconds = uintParams[5].mul(getPeriodUnitLengthInSeconds(periodUnitType));\n        uint policyEndUnixTimestamp = policyLengthInSeconds.add(bindingBlockTimestamp);\n\n        RentersParams memory policyParams = RentersParams({\n            claimTokenAddress: claimTokenAddr,\n            premiumTokenAddress: premiumTokenAddr,\n            limits: limits,\n            policyStartUnixTimestamp: bindingBlockTimestamp,\n            policyEndUnixTimestamp: policyEndUnixTimestamp,\n            periodUnitType: periodUnitType,\n            period: uintParams[5],\n            premium: uintParams[2],\n            deductible: uintParams[3]\n        });\n\n        return policyParams;\n    }\n\n    function unpackParametersFromBytes(bytes32[3] parameters)\n        public\n        pure\n        returns (uint[6])\n    {\n        // The first byte of the parameters encodes the claim token's index in the\n        // token registry.\n        bytes32 claimTokenIndexShifted =\n            parameters[0] & 0xff00000000000000000000000000000000000000000000000000000000000000;\n        // The subsequent byte encodes the premium token's index in the token registry\n        bytes32 premiumTokenIndexShifted =\n            parameters[0] & 0x00ff000000000000000000000000000000000000000000000000000000000000;\n        // The subsequent 12 bytes of the parameters encode the premium.\n        bytes32 premiumShifted =\n            parameters[0] & 0x0000ffffffffffffffffffffffff000000000000000000000000000000000000;\n        // The subsequent 12 bytes of the parameters encode the deductible.\n        bytes32 deductibleShifted =\n            parameters[0] & 0x0000000000000000000000000000ffffffffffffffffffffffff000000000000;\n        // The subsequent 4 bits (half byte) encode the period unit type code.\n        bytes32 periodUnitTypeShifted =\n            parameters[0] & 0x0000000000000000000000000000000000000000000000000000f00000000000;\n        // The subsequent 2 bytes encode the period, as denominated in\n        // the encoded period units.\n        bytes32 periodShifted =\n            parameters[0] & 0x00000000000000000000000000000000000000000000000000000ffff0000000;\n\n        // Note that the remaining 28 bits are free for future usage\n\n        /*\n        Bit shift left each of these values so that the 32-byte uint\n        correctly represents the value that was originally packed\n        into the 32 byte string.\n\n        The below chart summarizes where in the 32 byte string each value\n        terminates -- which indicates the extent to which each value must be bit\n        shifted left.\n\n        Sanity helper: Location (bytes) = Location (bits) / 8\n\n                                        Location (bytes)\tLocation (bits)\n                                        32                  256\n        claimTokenIndex\t                31\t                248\n        premiumTokenIndex               30                  240\n        premium\t                        18                  144\n        deductible                       6                   48\n        periodUnitType                   5.5                 44\n        period                           3.5                 28\n        */\n\n        return ([\n            bitShiftRight(claimTokenIndexShifted, 248),\n            bitShiftRight(premiumTokenIndexShifted, 240),\n            bitShiftRight(premiumShifted, 144),\n            bitShiftRight(deductibleShifted, 48),\n            bitShiftRight(periodUnitTypeShifted, 44),\n            bitShiftRight(periodShifted, 28)\n        ]);\n    }\n\n    function unpackLimitsFromBytes(bytes32[3] parameters)\n        public\n        pure\n        returns (uint[4] limits)\n    {\n        // The limits are currently encoded in parameters[1] and [2]\n\n        // The first 12 bytes of parameters[1] encode the personal liability limit\n        bytes32 personalLiabilityLimitShifted =\n            parameters[1] & 0xffffffffffffffffffffffff0000000000000000000000000000000000000000;\n        // The subsequent 12 bytes of parameters[1] encode the personal property limit\n        bytes32 personalPropertyLimitShifted =\n            parameters[1] & 0x000000000000000000000000ffffffffffffffffffffffff0000000000000000;\n        \n        // the first 12 bytes of parameters[2] encode the loss of use limit\n        bytes32 lossOfUseShifted =\n            parameters[2] & 0xffffffffffffffffffffffff0000000000000000000000000000000000000000;\n        // the subsequent 12 bytes of parameter[2] encode the medical costs for others limit\n        bytes32 medicalOthersLimitShifted =\n            parameters[1] & 0x000000000000000000000000ffffffffffffffffffffffff0000000000000000;\n\n        // parameters[1] and [2] both contain an extra 160 bits (8 bytes), \n        // this will likely continue to evolve\n\n        /*\n        Bit shift left each of these values to that the 32 byte uint correctly\n        represents the value that was originally packed.\n\n        Sanity helper: Location (bytes) = Location (bits) / 8\n\n                                        Location (bytes)\tLocation (bits)\n                                        32                  256\n        personalLiabilityLimit\t        20\t                160\n        personalPropertyLimit            8                   64\n\n        lossOfUseLimit\t                20\t                160\n        medicalOthersLimit               8                   64\n        */\n        \n        return ([\n            bitShiftRight(personalLiabilityLimitShifted, 160),\n            bitShiftRight(personalPropertyLimitShifted, 64),\n            bitShiftRight(lossOfUseShifted, 160),\n            bitShiftRight(medicalOthersLimitShifted, 64)\n        ]);\n    }\n\n    function bitShiftRight(bytes32 value, uint amount)\n        internal\n        pure\n        returns (uint)\n    {\n        return uint(value) / 2 ** amount;\n    }\n\n    function numPeriodUnitsForTimestamp(\n        uint timestamp,\n        RentersParams params\n    )\n        internal\n        returns (uint units)\n    {\n        uint delta = timestamp.sub(params.policyStartUnixTimestamp);\n        uint premiumUnitLengthInSeconds = getPeriodUnitLengthInSeconds(params.periodUnitType);\n        return delta.div(premiumUnitLengthInSeconds);\n    }\n\n    // Premium * Period = Total Premium\n    function calculateTotalPremium(\n        RentersParams params\n    )\n        internal\n        returns (uint _totalPremium)\n    {\n        return params.premium.mul(params.period);\n    }\n\n    function getPolicyEndTimestamp(\n        bytes32 _policyId\n    )\n        public\n        view\n        returns (uint)\n    {\n        RentersParams memory params = unpackParametersForPolicyId(_policyId);\n        return params.policyEndUnixTimestamp;\n    }\n\n    function getPeriodUnitLengthInSeconds(PeriodUnitType periodUnitType)\n        internal\n        pure\n        returns (uint _periodUnitLengthInSeconds)\n    {\n        if (periodUnitType == PeriodUnitType.HOURS) {\n            return HOUR_LENGTH_IN_SECONDS;\n        } else if (periodUnitType == PeriodUnitType.DAYS) {\n            return DAY_LENGTH_IN_SECONDS;\n        } else if (periodUnitType == PeriodUnitType.WEEKS) {\n            return WEEK_LENGTH_IN_SECONDS;\n        } else if (periodUnitType == PeriodUnitType.MONTHS) {\n            return MONTH_LENGTH_IN_SECONDS;\n        } else if (periodUnitType == PeriodUnitType.YEARS) {\n            return (YEAR_LENGTH_IN_SECONDS);\n        } else {\n            revert();\n        }\n    }\n    \n}",
  "sourcePath": "/Users/tyndall/Documents/Projects/asekuro-contracts-reloaded/contracts/policies/RentersPolicy.sol",
  "compiler": {
    "name": "solc",
    "version": "0.4.25+commit.59dbf8f1.Emscripten.clang"
  },
  "schemaVersion": "3.0.0-beta.1",
  "updatedAt": "2018-10-19T20:14:08.089Z"
}