{
  "contractName": "TokenRegistry",
  "abi": [
    {
      "constant": true,
      "inputs": [
        {
          "name": "",
          "type": "bytes32"
        }
      ],
      "name": "symbolHashToTokenAttributes",
      "outputs": [
        {
          "name": "tokenAddress",
          "type": "address"
        },
        {
          "name": "tokenIndex",
          "type": "uint256"
        },
        {
          "name": "name",
          "type": "string"
        },
        {
          "name": "numDecimals",
          "type": "uint8"
        }
      ],
      "payable": false,
      "stateMutability": "view",
      "type": "function",
      "signature": "0x3dbe284a"
    },
    {
      "constant": false,
      "inputs": [],
      "name": "renounceOwnership",
      "outputs": [],
      "payable": false,
      "stateMutability": "nonpayable",
      "type": "function",
      "signature": "0x715018a6"
    },
    {
      "constant": true,
      "inputs": [],
      "name": "owner",
      "outputs": [
        {
          "name": "",
          "type": "address"
        }
      ],
      "payable": false,
      "stateMutability": "view",
      "type": "function",
      "signature": "0x8da5cb5b"
    },
    {
      "constant": true,
      "inputs": [],
      "name": "isOwner",
      "outputs": [
        {
          "name": "",
          "type": "bool"
        }
      ],
      "payable": false,
      "stateMutability": "view",
      "type": "function",
      "signature": "0x8f32d59b"
    },
    {
      "constant": true,
      "inputs": [
        {
          "name": "",
          "type": "uint256"
        }
      ],
      "name": "tokenSymbolList",
      "outputs": [
        {
          "name": "",
          "type": "string"
        }
      ],
      "payable": false,
      "stateMutability": "view",
      "type": "function",
      "signature": "0x95f121bf"
    },
    {
      "constant": true,
      "inputs": [],
      "name": "tokenSymbolListLength",
      "outputs": [
        {
          "name": "",
          "type": "uint8"
        }
      ],
      "payable": false,
      "stateMutability": "view",
      "type": "function",
      "signature": "0xc51ccb40"
    },
    {
      "constant": false,
      "inputs": [
        {
          "name": "newOwner",
          "type": "address"
        }
      ],
      "name": "transferOwnership",
      "outputs": [],
      "payable": false,
      "stateMutability": "nonpayable",
      "type": "function",
      "signature": "0xf2fde38b"
    },
    {
      "anonymous": false,
      "inputs": [
        {
          "indexed": true,
          "name": "previousOwner",
          "type": "address"
        }
      ],
      "name": "OwnershipRenounced",
      "type": "event",
      "signature": "0xf8df31144d9c2f0f6b59d69b8b98abd5459d07f2742c4df920b25aae33c64820"
    },
    {
      "anonymous": false,
      "inputs": [
        {
          "indexed": true,
          "name": "previousOwner",
          "type": "address"
        },
        {
          "indexed": true,
          "name": "newOwner",
          "type": "address"
        }
      ],
      "name": "OwnershipTransferred",
      "type": "event",
      "signature": "0x8be0079c531659141344cd1fd0a4f28419497f9722a3daafe3b4186f6b6457e0"
    },
    {
      "constant": false,
      "inputs": [
        {
          "name": "_symbol",
          "type": "string"
        },
        {
          "name": "_tokenAddress",
          "type": "address"
        },
        {
          "name": "_tokenName",
          "type": "string"
        },
        {
          "name": "_numDecimals",
          "type": "uint8"
        }
      ],
      "name": "setTokenAttributes",
      "outputs": [],
      "payable": false,
      "stateMutability": "nonpayable",
      "type": "function",
      "signature": "0x51d658d2"
    },
    {
      "constant": true,
      "inputs": [
        {
          "name": "_symbol",
          "type": "string"
        }
      ],
      "name": "getTokenAddressBySymbol",
      "outputs": [
        {
          "name": "",
          "type": "address"
        }
      ],
      "payable": false,
      "stateMutability": "view",
      "type": "function",
      "signature": "0x3550b6d9"
    },
    {
      "constant": true,
      "inputs": [
        {
          "name": "_index",
          "type": "uint256"
        }
      ],
      "name": "getTokenAddressByIndex",
      "outputs": [
        {
          "name": "",
          "type": "address"
        }
      ],
      "payable": false,
      "stateMutability": "view",
      "type": "function",
      "signature": "0x5715c5b7"
    },
    {
      "constant": true,
      "inputs": [
        {
          "name": "_index",
          "type": "uint256"
        }
      ],
      "name": "getTokenSymbolByIndex",
      "outputs": [
        {
          "name": "",
          "type": "string"
        }
      ],
      "payable": false,
      "stateMutability": "view",
      "type": "function",
      "signature": "0x6e7cbb0d"
    },
    {
      "constant": true,
      "inputs": [
        {
          "name": "_symbol",
          "type": "string"
        }
      ],
      "name": "getTokenAttributesBySymbol",
      "outputs": [
        {
          "name": "",
          "type": "address"
        },
        {
          "name": "",
          "type": "uint256"
        },
        {
          "name": "",
          "type": "string"
        },
        {
          "name": "",
          "type": "uint256"
        }
      ],
      "payable": false,
      "stateMutability": "view",
      "type": "function",
      "signature": "0x8052348b"
    },
    {
      "constant": true,
      "inputs": [
        {
          "name": "_index",
          "type": "uint256"
        }
      ],
      "name": "getTokenAttributesByIndex",
      "outputs": [
        {
          "name": "",
          "type": "address"
        },
        {
          "name": "",
          "type": "string"
        },
        {
          "name": "",
          "type": "string"
        },
        {
          "name": "",
          "type": "uint8"
        }
      ],
      "payable": false,
      "stateMutability": "view",
      "type": "function",
      "signature": "0x1e71f8d1"
    }
  ],
  "bytecode": "0x6080604052336000806101000a81548173ffffffffffffffffffffffffffffffffffffffff021916908373ffffffffffffffffffffffffffffffffffffffff160217905550611739806100536000396000f3006080604052600436106100c5576000357c0100000000000000000000000000000000000000000000000000000000900463ffffffff1680631e71f8d1146100ca5780633550b6d91461021c5780633dbe284a146102c557806351d658d2146103b65780635715c5b7146104925780636e7cbb0d146104ff578063715018a6146105a55780638052348b146105bc5780638da5cb5b146106df5780638f32d59b1461073657806395f121bf14610765578063c51ccb401461080b578063f2fde38b1461083c575b600080fd5b3480156100d657600080fd5b506100f56004803603810190808035906020019092919050505061087f565b604051808573ffffffffffffffffffffffffffffffffffffffff1673ffffffffffffffffffffffffffffffffffffffff16815260200180602001806020018460ff1660ff168152602001838103835286818151815260200191508051906020019080838360005b8381101561017757808201518184015260208101905061015c565b50505050905090810190601f1680156101a45780820380516001836020036101000a031916815260200191505b50838103825285818151815260200191508051906020019080838360005b838110156101dd5780820151818401526020810190506101c2565b50505050905090810190601f16801561020a5780820380516001836020036101000a031916815260200191505b50965050505050505060405180910390f35b34801561022857600080fd5b50610283600480360381019080803590602001908201803590602001908080601f0160208091040260200160405190810160405280939291908181526020018383808284378201915050505050509192919290505050610a02565b604051808273ffffffffffffffffffffffffffffffffffffffff1673ffffffffffffffffffffffffffffffffffffffff16815260200191505060405180910390f35b3480156102d157600080fd5b506102f46004803603810190808035600019169060200190929190505050610ab7565b604051808573ffffffffffffffffffffffffffffffffffffffff1673ffffffffffffffffffffffffffffffffffffffff168152602001848152602001806020018360ff1660ff168152602001828103825284818151815260200191508051906020019080838360005b8381101561037857808201518184015260208101905061035d565b50505050905090810190601f1680156103a55780820380516001836020036101000a031916815260200191505b509550505050505060405180910390f35b3480156103c257600080fd5b50610490600480360381019080803590602001908201803590602001908080601f0160208091040260200160405190810160405280939291908181526020018383808284378201915050505050509192919290803573ffffffffffffffffffffffffffffffffffffffff169060200190929190803590602001908201803590602001908080601f0160208091040260200160405190810160405280939291908181526020018383808284378201915050505050509192919290803560ff169060200190929190505050610bac565b005b34801561049e57600080fd5b506104bd60048036038101908080359060200190929190505050610f9a565b604051808273ffffffffffffffffffffffffffffffffffffffff1673ffffffffffffffffffffffffffffffffffffffff16815260200191505060405180910390f35b34801561050b57600080fd5b5061052a6004803603810190808035906020019092919050505061105a565b6040518080602001828103825283818151815260200191508051906020019080838360005b8381101561056a57808201518184015260208101905061054f565b50505050905090810190601f1680156105975780820380516001836020036101000a031916815260200191505b509250505060405180910390f35b3480156105b157600080fd5b506105ba61110d565b005b3480156105c857600080fd5b50610623600480360381019080803590602001908201803590602001908080601f01602080910402602001604051908101604052809392919081815260200183838082843782019150505050505091929192905050506111c7565b604051808573ffffffffffffffffffffffffffffffffffffffff1673ffffffffffffffffffffffffffffffffffffffff16815260200184815260200180602001838152602001828103825284818151815260200191508051906020019080838360005b838110156106a1578082015181840152602081019050610686565b50505050905090810190601f1680156106ce5780820380516001836020036101000a031916815260200191505b509550505050505060405180910390f35b3480156106eb57600080fd5b506106f4611346565b604051808273ffffffffffffffffffffffffffffffffffffffff1673ffffffffffffffffffffffffffffffffffffffff16815260200191505060405180910390f35b34801561074257600080fd5b5061074b61136f565b604051808215151515815260200191505060405180910390f35b34801561077157600080fd5b50610790600480360381019080803590602001909291905050506113c6565b6040518080602001828103825283818151815260200191508051906020019080838360005b838110156107d05780820151818401526020810190506107b5565b50505050905090810190601f1680156107fd5780820380516001836020036101000a031916815260200191505b509250505060405180910390f35b34801561081757600080fd5b50610820611479565b604051808260ff1660ff16815260200191505060405180910390f35b34801561084857600080fd5b5061087d600480360381019080803573ffffffffffffffffffffffffffffffffffffffff16906020019092919050505061148d565b005b6000606080600060606000806108948861105a565b9250826040518082805190602001908083835b6020831015156108cc57805182526020820191506020810190506020830392506108a7565b6001836020036101000a0380198251168184511680821785525050505050509050019150506040518091039020915060016000836000191660001916815260200190815260200160002090508060000160009054906101000a900473ffffffffffffffffffffffffffffffffffffffff1683826002018360030160009054906101000a900460ff16818054600181600116156101000203166002900480601f0160208091040260200160405190810160405280929190818152602001828054600181600116156101000203166002900480156109e95780601f106109be576101008083540402835291602001916109e9565b820191906000526020600020905b8154815290600101906020018083116109cc57829003601f168201915b5050505050915096509650965096505050509193509193565b6000806000836040518082805190602001908083835b602083101515610a3d5780518252602082019150602081019050602083039250610a18565b6001836020036101000a0380198251168184511680821785525050505050509050019150506040518091039020915060016000836000191660001916815260200190815260200160002090508060000160009054906101000a900473ffffffffffffffffffffffffffffffffffffffff1692505050919050565b60016020528060005260406000206000915090508060000160009054906101000a900473ffffffffffffffffffffffffffffffffffffffff1690806001015490806002018054600181600116156101000203166002900480601f016020809104026020016040519081016040528092919081815260200182805460018160011615610100020316600290048015610b8f5780601f10610b6457610100808354040283529160200191610b8f565b820191906000526020600020905b815481529060010190602001808311610b7257829003601f168201915b5050505050908060030160009054906101000a900460ff16905084565b6000610bb66115a6565b610bbe61136f565b1515610bc957600080fd5b856040518082805190602001908083835b602083101515610bff5780518252602082019150602081019050602083039250610bda565b6001836020036101000a03801982511681845116808217855250505050505090500191505060405180910390209150600160008360001916600019168152602001908152602001600020608060405190810160405290816000820160009054906101000a900473ffffffffffffffffffffffffffffffffffffffff1673ffffffffffffffffffffffffffffffffffffffff1673ffffffffffffffffffffffffffffffffffffffff16815260200160018201548152602001600282018054600181600116156101000203166002900480601f016020809104026020016040519081016040528092919081815260200182805460018160011615610100020316600290048015610d4e5780601f10610d2357610100808354040283529160200191610d4e565b820191906000526020600020905b815481529060010190602001808311610d3157829003601f168201915b505050505081526020016003820160009054906101000a900460ff1660ff1660ff16815250509050600073ffffffffffffffffffffffffffffffffffffffff16816000015173ffffffffffffffffffffffffffffffffffffffff161415610e905784816000019073ffffffffffffffffffffffffffffffffffffffff16908173ffffffffffffffffffffffffffffffffffffffff168152505082816060019060ff16908160ff168152505083816040018190525061010260009054906101000a900460ff1660ff1681602001818152505085600261010260009054906101000a900460ff1660ff1661010081101515610e4357fe5b019080519060200190610e579291906115e8565b50610102600081819054906101000a900460ff168092919060010191906101000a81548160ff021916908360ff16021790555050610ee4565b84816000019073ffffffffffffffffffffffffffffffffffffffff16908173ffffffffffffffffffffffffffffffffffffffff168152505082816060019060ff16908160ff16815250508381604001819052505b8060016000846000191660001916815260200190815260200160002060008201518160000160006101000a81548173ffffffffffffffffffffffffffffffffffffffff021916908373ffffffffffffffffffffffffffffffffffffffff160217905550602082015181600101556040820151816002019080519060200190610f6d929190611668565b5060608201518160030160006101000a81548160ff021916908360ff160217905550905050505050505050565b60008060028361010081101515610fad57fe5b019050611052818054600181600116156101000203166002900480601f0160208091040260200160405190810160405280929190818152602001828054600181600116156101000203166002900480156110485780601f1061101d57610100808354040283529160200191611048565b820191906000526020600020905b81548152906001019060200180831161102b57829003601f168201915b5050505050610a02565b915050919050565b60606002826101008110151561106c57fe5b018054600181600116156101000203166002900480601f0160208091040260200160405190810160405280929190818152602001828054600181600116156101000203166002900480156111015780601f106110d657610100808354040283529160200191611101565b820191906000526020600020905b8154815290600101906020018083116110e457829003601f168201915b50505050509050919050565b61111561136f565b151561112057600080fd5b6000809054906101000a900473ffffffffffffffffffffffffffffffffffffffff1673ffffffffffffffffffffffffffffffffffffffff167ff8df31144d9c2f0f6b59d69b8b98abd5459d07f2742c4df920b25aae33c6482060405160405180910390a260008060006101000a81548173ffffffffffffffffffffffffffffffffffffffff021916908373ffffffffffffffffffffffffffffffffffffffff160217905550565b60008060606000806000866040518082805190602001908083835b60208310151561120757805182526020820191506020810190506020830392506111e2565b6001836020036101000a0380198251168184511680821785525050505050509050019150506040518091039020915060016000836000191660001916815260200190815260200160002090508060000160009054906101000a900473ffffffffffffffffffffffffffffffffffffffff168160010154826002018360030160009054906101000a900460ff16818054600181600116156101000203166002900480601f0160208091040260200160405190810160405280929190818152602001828054600181600116156101000203166002900480156113285780601f106112fd57610100808354040283529160200191611328565b820191906000526020600020905b81548152906001019060200180831161130b57829003601f168201915b505050505091508060ff169050955095509550955050509193509193565b60008060009054906101000a900473ffffffffffffffffffffffffffffffffffffffff16905090565b60008060009054906101000a900473ffffffffffffffffffffffffffffffffffffffff1673ffffffffffffffffffffffffffffffffffffffff163373ffffffffffffffffffffffffffffffffffffffff1614905090565b600281610100811015156113d657fe5b016000915090508054600181600116156101000203166002900480601f0160208091040260200160405190810160405280929190818152602001828054600181600116156101000203166002900480156114715780601f1061144657610100808354040283529160200191611471565b820191906000526020600020905b81548152906001019060200180831161145457829003601f168201915b505050505081565b61010260009054906101000a900460ff1681565b61149561136f565b15156114a057600080fd5b6114a9816114ac565b50565b600073ffffffffffffffffffffffffffffffffffffffff168173ffffffffffffffffffffffffffffffffffffffff16141515156114e857600080fd5b8073ffffffffffffffffffffffffffffffffffffffff166000809054906101000a900473ffffffffffffffffffffffffffffffffffffffff1673ffffffffffffffffffffffffffffffffffffffff167f8be0079c531659141344cd1fd0a4f28419497f9722a3daafe3b4186f6b6457e060405160405180910390a3806000806101000a81548173ffffffffffffffffffffffffffffffffffffffff021916908373ffffffffffffffffffffffffffffffffffffffff16021790555050565b608060405190810160405280600073ffffffffffffffffffffffffffffffffffffffff1681526020016000815260200160608152602001600060ff1681525090565b828054600181600116156101000203166002900490600052602060002090601f016020900481019282601f1061162957805160ff1916838001178555611657565b82800160010185558215611657579182015b8281111561165657825182559160200191906001019061163b565b5b50905061166491906116e8565b5090565b828054600181600116156101000203166002900490600052602060002090601f016020900481019282601f106116a957805160ff19168380011785556116d7565b828001600101855582156116d7579182015b828111156116d65782518255916020019190600101906116bb565b5b5090506116e491906116e8565b5090565b61170a91905b808211156117065760008160009055506001016116ee565b5090565b905600a165627a7a72305820077ef0c96b0a859bfee9ffa5c3587452543d0d3d2f8c7044c5cfc717568d191b0029",
  "source": "pragma solidity ^0.4.18;\n\nimport \"../node_modules/openzeppelin-solidity/contracts/ownership/Ownable.sol\";\n\ncontract TokenRegistry is Ownable {\n    // used to lookup TokenAttribute\n    mapping (bytes32 => TokenAttributes) public symbolHashToTokenAttributes;\n    // list of token symbols\n    string[256] public tokenSymbolList;\n    // count of current token symbols in list\n    uint8 public tokenSymbolListLength;\n\n    struct TokenAttributes {\n        address tokenAddress;\n        uint tokenIndex;\n        string name;\n        uint8 numDecimals;\n    }\n\n    function setTokenAttributes(\n        string _symbol,\n        address _tokenAddress,\n        string _tokenName,\n        uint8 _numDecimals\n    )\n        public onlyOwner\n    {\n        bytes32 symbolHash = keccak256(_symbol);\n\n        TokenAttributes memory attributes = symbolHashToTokenAttributes[symbolHash];\n\n        if (attributes.tokenAddress == address(0)) {\n            // Token has not been added to the registry\n            attributes.tokenAddress = _tokenAddress;\n            attributes.numDecimals = _numDecimals;\n            attributes.name = _tokenName;\n            attributes.tokenIndex = tokenSymbolListLength;\n            tokenSymbolList[tokenSymbolListLength] = _symbol;\n            tokenSymbolListLength++;\n        } else {\n            // Token has already been added\n            attributes.tokenAddress = _tokenAddress;\n            attributes.numDecimals = _numDecimals;\n            attributes.name = _tokenName;\n        }\n        \n        symbolHashToTokenAttributes[symbolHash] = attributes;\n    }\n\n    function getTokenAddressBySymbol(string _symbol) public view returns (address) {\n        bytes32 symbolHash = keccak256(_symbol);\n\n        TokenAttributes storage attributes = symbolHashToTokenAttributes[symbolHash];\n\n        return attributes.tokenAddress;\n    }\n\n    function getTokenAddressByIndex(uint _index) public view returns (address) {\n        string storage symbol = tokenSymbolList[_index];\n\n        return getTokenAddressBySymbol(symbol);\n    }\n\n    function getTokenSymbolByIndex(uint _index) public view returns (string) {\n        return tokenSymbolList[_index];\n    }\n\n    function getTokenAttributesBySymbol(string _symbol)\n        public\n        view\n        returns (\n            address,\n            uint,\n            string,\n            uint\n        )\n    {\n        bytes32 symbolHash = keccak256(_symbol);\n\n        TokenAttributes storage attributes = symbolHashToTokenAttributes[symbolHash];\n\n        return (\n            attributes.tokenAddress,\n            attributes.tokenIndex,\n            attributes.name,\n            attributes.numDecimals\n        );\n    }\n\n    function getTokenAttributesByIndex(uint _index)\n        public\n        view\n        returns (\n            address,\n            string,\n            string,\n            uint8\n        )\n    {\n        string memory symbol = getTokenSymbolByIndex(_index);\n\n        bytes32 symbolHash = keccak256(symbol);\n\n        TokenAttributes storage attributes = symbolHashToTokenAttributes[symbolHash];\n\n        return (\n            attributes.tokenAddress,\n            symbol,\n            attributes.name,\n            attributes.numDecimals\n        );\n    }\n}",
  "sourcePath": "/Users/tyndall/Documents/Projects/asekuro-contracts-reloaded/contracts/TokenRegistry.sol",
  "compiler": {
    "name": "solc",
    "version": "0.4.25+commit.59dbf8f1.Emscripten.clang"
  },
  "schemaVersion": "3.0.0-beta.1",
  "updatedAt": "2018-10-19T20:14:07.774Z"
}